{
  "_format": "hh-sol-artifact-1",
  "contractName": "LOGIKStampSet1",
  "sourceName": "contracts/LOGIKStampSet1.sol",
  "abi": [
    {
      "inputs": [],
      "stateMutability": "nonpayable",
      "type": "constructor"
    },
    {
      "anonymous": false,
      "inputs": [
        {
          "indexed": true,
          "internalType": "address",
          "name": "account",
          "type": "address"
        },
        {
          "indexed": true,
          "internalType": "address",
          "name": "operator",
          "type": "address"
        },
        {
          "indexed": false,
          "internalType": "bool",
          "name": "approved",
          "type": "bool"
        }
      ],
      "name": "ApprovalForAll",
      "type": "event"
    },
    {
      "anonymous": false,
      "inputs": [
        {
          "indexed": true,
          "internalType": "address",
          "name": "previousOwner",
          "type": "address"
        },
        {
          "indexed": true,
          "internalType": "address",
          "name": "newOwner",
          "type": "address"
        }
      ],
      "name": "OwnershipTransferred",
      "type": "event"
    },
    {
      "anonymous": false,
      "inputs": [
        {
          "indexed": true,
          "internalType": "address",
          "name": "operator",
          "type": "address"
        },
        {
          "indexed": true,
          "internalType": "address",
          "name": "from",
          "type": "address"
        },
        {
          "indexed": true,
          "internalType": "address",
          "name": "to",
          "type": "address"
        },
        {
          "indexed": false,
          "internalType": "uint256[]",
          "name": "ids",
          "type": "uint256[]"
        },
        {
          "indexed": false,
          "internalType": "uint256[]",
          "name": "values",
          "type": "uint256[]"
        }
      ],
      "name": "TransferBatch",
      "type": "event"
    },
    {
      "anonymous": false,
      "inputs": [
        {
          "indexed": true,
          "internalType": "address",
          "name": "operator",
          "type": "address"
        },
        {
          "indexed": true,
          "internalType": "address",
          "name": "from",
          "type": "address"
        },
        {
          "indexed": true,
          "internalType": "address",
          "name": "to",
          "type": "address"
        },
        {
          "indexed": false,
          "internalType": "uint256",
          "name": "id",
          "type": "uint256"
        },
        {
          "indexed": false,
          "internalType": "uint256",
          "name": "value",
          "type": "uint256"
        }
      ],
      "name": "TransferSingle",
      "type": "event"
    },
    {
      "anonymous": false,
      "inputs": [
        {
          "indexed": false,
          "internalType": "string",
          "name": "value",
          "type": "string"
        },
        {
          "indexed": true,
          "internalType": "uint256",
          "name": "id",
          "type": "uint256"
        }
      ],
      "name": "URI",
      "type": "event"
    },
    {
      "inputs": [],
      "name": "COUNTRY3",
      "outputs": [
        {
          "internalType": "uint256",
          "name": "",
          "type": "uint256"
        }
      ],
      "stateMutability": "view",
      "type": "function"
    },
    {
      "inputs": [],
      "name": "COUNTRY4",
      "outputs": [
        {
          "internalType": "uint256",
          "name": "",
          "type": "uint256"
        }
      ],
      "stateMutability": "view",
      "type": "function"
    },
    {
      "inputs": [],
      "name": "COUNTRY5",
      "outputs": [
        {
          "internalType": "uint256",
          "name": "",
          "type": "uint256"
        }
      ],
      "stateMutability": "view",
      "type": "function"
    },
    {
      "inputs": [],
      "name": "COUNTRY6",
      "outputs": [
        {
          "internalType": "uint256",
          "name": "",
          "type": "uint256"
        }
      ],
      "stateMutability": "view",
      "type": "function"
    },
    {
      "inputs": [],
      "name": "COUNTRY7",
      "outputs": [
        {
          "internalType": "uint256",
          "name": "",
          "type": "uint256"
        }
      ],
      "stateMutability": "view",
      "type": "function"
    },
    {
      "inputs": [],
      "name": "JAPAN",
      "outputs": [
        {
          "internalType": "uint256",
          "name": "",
          "type": "uint256"
        }
      ],
      "stateMutability": "view",
      "type": "function"
    },
    {
      "inputs": [],
      "name": "MEXICO",
      "outputs": [
        {
          "internalType": "uint256",
          "name": "",
          "type": "uint256"
        }
      ],
      "stateMutability": "view",
      "type": "function"
    },
    {
      "inputs": [],
      "name": "NUM_PASSPORTS",
      "outputs": [
        {
          "internalType": "uint256",
          "name": "",
          "type": "uint256"
        }
      ],
      "stateMutability": "view",
      "type": "function"
    },
    {
      "inputs": [],
      "name": "USA",
      "outputs": [
        {
          "internalType": "uint256",
          "name": "",
          "type": "uint256"
        }
      ],
      "stateMutability": "view",
      "type": "function"
    },
    {
      "inputs": [
        {
          "internalType": "address",
          "name": "recipient",
          "type": "address"
        },
        {
          "internalType": "uint256",
          "name": "stamp_id",
          "type": "uint256"
        }
      ],
      "name": "awardStamp",
      "outputs": [
        {
          "internalType": "uint32",
          "name": "",
          "type": "uint32"
        }
      ],
      "stateMutability": "nonpayable",
      "type": "function"
    },
    {
      "inputs": [
        {
          "internalType": "address",
          "name": "account",
          "type": "address"
        },
        {
          "internalType": "uint256",
          "name": "id",
          "type": "uint256"
        }
      ],
      "name": "balanceOf",
      "outputs": [
        {
          "internalType": "uint256",
          "name": "",
          "type": "uint256"
        }
      ],
      "stateMutability": "view",
      "type": "function"
    },
    {
      "inputs": [
        {
          "internalType": "address[]",
          "name": "accounts",
          "type": "address[]"
        },
        {
          "internalType": "uint256[]",
          "name": "ids",
          "type": "uint256[]"
        }
      ],
      "name": "balanceOfBatch",
      "outputs": [
        {
          "internalType": "uint256[]",
          "name": "",
          "type": "uint256[]"
        }
      ],
      "stateMutability": "view",
      "type": "function"
    },
    {
      "inputs": [
        {
          "internalType": "address",
          "name": "account",
          "type": "address"
        },
        {
          "internalType": "address",
          "name": "operator",
          "type": "address"
        }
      ],
      "name": "isApprovedForAll",
      "outputs": [
        {
          "internalType": "bool",
          "name": "",
          "type": "bool"
        }
      ],
      "stateMutability": "view",
      "type": "function"
    },
    {
      "inputs": [],
      "name": "owner",
      "outputs": [
        {
          "internalType": "address",
          "name": "",
          "type": "address"
        }
      ],
      "stateMutability": "view",
      "type": "function"
    },
    {
      "inputs": [],
      "name": "renounceOwnership",
      "outputs": [],
      "stateMutability": "nonpayable",
      "type": "function"
    },
    {
      "inputs": [
        {
          "internalType": "address",
          "name": "from",
          "type": "address"
        },
        {
          "internalType": "address",
          "name": "to",
          "type": "address"
        },
        {
          "internalType": "uint256[]",
          "name": "ids",
          "type": "uint256[]"
        },
        {
          "internalType": "uint256[]",
          "name": "amounts",
          "type": "uint256[]"
        },
        {
          "internalType": "bytes",
          "name": "data",
          "type": "bytes"
        }
      ],
      "name": "safeBatchTransferFrom",
      "outputs": [],
      "stateMutability": "nonpayable",
      "type": "function"
    },
    {
      "inputs": [
        {
          "internalType": "address",
          "name": "from",
          "type": "address"
        },
        {
          "internalType": "address",
          "name": "to",
          "type": "address"
        },
        {
          "internalType": "uint256",
          "name": "id",
          "type": "uint256"
        },
        {
          "internalType": "uint256",
          "name": "amount",
          "type": "uint256"
        },
        {
          "internalType": "bytes",
          "name": "data",
          "type": "bytes"
        }
      ],
      "name": "safeTransferFrom",
      "outputs": [],
      "stateMutability": "nonpayable",
      "type": "function"
    },
    {
      "inputs": [
        {
          "internalType": "address",
          "name": "operator",
          "type": "address"
        },
        {
          "internalType": "bool",
          "name": "approved",
          "type": "bool"
        }
      ],
      "name": "setApprovalForAll",
      "outputs": [],
      "stateMutability": "nonpayable",
      "type": "function"
    },
    {
      "inputs": [
        {
          "internalType": "bytes4",
          "name": "interfaceId",
          "type": "bytes4"
        }
      ],
      "name": "supportsInterface",
      "outputs": [
        {
          "internalType": "bool",
          "name": "",
          "type": "bool"
        }
      ],
      "stateMutability": "view",
      "type": "function"
    },
    {
      "inputs": [
        {
          "internalType": "address",
          "name": "newOwner",
          "type": "address"
        }
      ],
      "name": "transferOwnership",
      "outputs": [],
      "stateMutability": "nonpayable",
      "type": "function"
    },
    {
      "inputs": [
        {
          "internalType": "uint256",
          "name": "",
          "type": "uint256"
        }
      ],
      "name": "uri",
      "outputs": [
        {
          "internalType": "string",
          "name": "",
          "type": "string"
        }
      ],
      "stateMutability": "view",
      "type": "function"
    }
  ],
  "bytecode": "0x60806040523480156200001157600080fd5b506040518060600160405280603e8152602001620035b0603e9139620000446301ffc9a760e01b6200026560201b60201c565b62000055816200036e60201b60201c565b6200006d63d9b67a2660e01b6200026560201b60201c565b62000085630e89341c60e01b6200026560201b60201c565b506000620000986200038a60201b60201c565b905080600460006101000a81548173ffffffffffffffffffffffffffffffffffffffff021916908373ffffffffffffffffffffffffffffffffffffffff1602179055508073ffffffffffffffffffffffffffffffffffffffff16600073ffffffffffffffffffffffffffffffffffffffff167f8be0079c531659141344cd1fd0a4f28419497f9722a3daafe3b4186f6b6457e060405160405180910390a3506200015c3360006008604051806020016040528060008152506200039260201b60201c565b620001813360016008604051806020016040528060008152506200039260201b60201c565b620001a63360026008604051806020016040528060008152506200039260201b60201c565b620001cb3360036008604051806020016040528060008152506200039260201b60201c565b620001f03360046008604051806020016040528060008152506200039260201b60201c565b620002153360056008604051806020016040528060008152506200039260201b60201c565b6200023a3360066008604051806020016040528060008152506200039260201b60201c565b6200025f3360076008604051806020016040528060008152506200039260201b60201c565b62000bca565b63ffffffff60e01b817bffffffffffffffffffffffffffffffffffffffffffffffffffffffff1916141562000302576040517f08c379a000000000000000000000000000000000000000000000000000000000815260040180806020018281038252601c8152602001807f4552433136353a20696e76616c696420696e746572666163652069640000000081525060200191505060405180910390fd5b6001600080837bffffffffffffffffffffffffffffffffffffffffffffffffffffffff19167bffffffffffffffffffffffffffffffffffffffffffffffffffffffff1916815260200190815260200160002060006101000a81548160ff02191690831515021790555050565b80600390805190602001906200038692919062000a42565b5050565b600033905090565b600073ffffffffffffffffffffffffffffffffffffffff168473ffffffffffffffffffffffffffffffffffffffff1614156200041a576040517f08c379a0000000000000000000000000000000000000000000000000000000008152600401808060200182810382526021815260200180620035ee6021913960400191505060405180910390fd5b60006200042c6200038a60201b60201c565b905062000465816000876200044788620005c660201b60201c565b6200045888620005c660201b60201c565b876200063960201b60201c565b620004cf836001600087815260200190815260200160002060008873ffffffffffffffffffffffffffffffffffffffff1673ffffffffffffffffffffffffffffffffffffffff168152602001908152602001600020546200064160201b62001d8f1790919060201c565b6001600086815260200190815260200160002060008773ffffffffffffffffffffffffffffffffffffffff1673ffffffffffffffffffffffffffffffffffffffff168152602001908152602001600020819055508473ffffffffffffffffffffffffffffffffffffffff16600073ffffffffffffffffffffffffffffffffffffffff168273ffffffffffffffffffffffffffffffffffffffff167fc3d58168c5ae7397731d063d5bbf3d657854427343f4c083240f7aacaa2d0f628787604051808381526020018281526020019250505060405180910390a4620005bf81600087878787620006ca60201b60201c565b5050505050565b606080600167ffffffffffffffff81118015620005e257600080fd5b50604051908082528060200260200182016040528015620006125781602001602082028036833780820191505090505b50905082816000815181106200062457fe5b60200260200101818152505080915050919050565b505050505050565b600080828401905083811015620006c0576040517f08c379a000000000000000000000000000000000000000000000000000000000815260040180806020018281038252601b8152602001807f536166654d6174683a206164646974696f6e206f766572666c6f77000000000081525060200191505060405180910390fd5b8091505092915050565b620006f68473ffffffffffffffffffffffffffffffffffffffff16620009f660201b62001e171760201c565b15620009ee578373ffffffffffffffffffffffffffffffffffffffff1663f23a6e6187878686866040518663ffffffff1660e01b8152600401808673ffffffffffffffffffffffffffffffffffffffff1681526020018573ffffffffffffffffffffffffffffffffffffffff16815260200184815260200183815260200180602001828103825283818151815260200191508051906020019080838360005b83811015620007b257808201518184015260208101905062000795565b50505050905090810190601f168015620007e05780820380516001836020036101000a031916815260200191505b509650505050505050602060405180830381600087803b1580156200080457600080fd5b505af19250505080156200083a57506040513d60208110156200082657600080fd5b810190808051906020019092919050505060015b6200094d576200084962000b06565b80620008565750620008fb565b806040517f08c379a00000000000000000000000000000000000000000000000000000000081526004018080602001828103825283818151815260200191508051906020019080838360005b83811015620008bf578082015181840152602081019050620008a2565b50505050905090810190601f168015620008ed5780820380516001836020036101000a031916815260200191505b509250505060405180910390fd5b6040517f08c379a0000000000000000000000000000000000000000000000000000000008152600401808060200182810382526034815260200180620035546034913960400191505060405180910390fd5b63f23a6e6160e01b7bffffffffffffffffffffffffffffffffffffffffffffffffffffffff1916817bffffffffffffffffffffffffffffffffffffffffffffffffffffffff191614620009ec576040517f08c379a0000000000000000000000000000000000000000000000000000000008152600401808060200182810382526028815260200180620035886028913960400191505060405180910390fd5b505b505050505050565b60008060007fc5d2460186f7233c927e7db2dcc703c0e500b653ca82273b7bfad8045d85a47060001b9050833f915080821415801562000a3957506000801b8214155b92505050919050565b828054600181600116156101000203166002900490600052602060002090601f016020900481019282601f1062000a8557805160ff191683800117855562000ab6565b8280016001018555821562000ab6579182015b8281111562000ab557825182559160200191906001019062000a98565b5b50905062000ac5919062000ac9565b5090565b5b8082111562000ae457600081600090555060010162000aca565b5090565b6000601f19601f8301169050919050565b60008160e01c9050919050565b600060443d101562000b185762000bc7565b60046000803e62000b2b60005162000af9565b6308c379a0811462000b3e575062000bc7565b60405160043d036004823e80513d602482011167ffffffffffffffff8211171562000b6c5750505062000bc7565b808201805167ffffffffffffffff81111562000b8d57505050505062000bc7565b8060208301013d850181111562000baa5750505050505062000bc7565b62000bb58262000ae8565b60208401016040528296505050505050505b90565b61297a8062000bda6000396000f3fe608060405234801561001057600080fd5b50600436106101355760003560e01c806341fcdac9116100b8578063a22cb4651161007c578063a22cb465146107e2578063d233e1ce14610832578063e985e9c514610850578063ee5aa34e146108ca578063f242432a146108e8578063f2fde38b146109f757610135565b806341fcdac9146105c75780634e1273f4146105e5578063715018a614610786578063892c3526146107905780638da5cb5b146107ae57610135565b806322ff79d8116100ff57806322ff79d8146102e2578063262bc42e1461030057806327d46a181461031e578063294bcd791461033c5780632eb2c2d6146103a457610135565b8062a602031461013a578062fdd58e1461015857806301ffc9a7146101ba5780630e89341c1461021d57806320933df0146102c4575b600080fd5b610142610a3b565b6040518082815260200191505060405180910390f35b6101a46004803603604081101561016e57600080fd5b81019080803573ffffffffffffffffffffffffffffffffffffffff16906020019092919080359060200190929190505050610a40565b6040518082815260200191505060405180910390f35b610205600480360360208110156101d057600080fd5b8101908080357bffffffffffffffffffffffffffffffffffffffffffffffffffffffff19169060200190929190505050610b20565b60405180821515815260200191505060405180910390f35b6102496004803603602081101561023357600080fd5b8101908080359060200190929190505050610b87565b6040518080602001828103825283818151815260200191508051906020019080838360005b8381101561028957808201518184015260208101905061026e565b50505050905090810190601f1680156102b65780820380516001836020036101000a031916815260200191505b509250505060405180910390f35b6102cc610c2b565b6040518082815260200191505060405180910390f35b6102ea610c30565b6040518082815260200191505060405180910390f35b610308610c35565b6040518082815260200191505060405180910390f35b610326610c3a565b6040518082815260200191505060405180910390f35b6103886004803603604081101561035257600080fd5b81019080803573ffffffffffffffffffffffffffffffffffffffff16906020019092919080359060200190929190505050610c3f565b604051808263ffffffff16815260200191505060405180910390f35b6105c5600480360360a08110156103ba57600080fd5b81019080803573ffffffffffffffffffffffffffffffffffffffff169060200190929190803573ffffffffffffffffffffffffffffffffffffffff1690602001909291908035906020019064010000000081111561041757600080fd5b82018360208201111561042957600080fd5b8035906020019184602083028401116401000000008311171561044b57600080fd5b919080806020026020016040519081016040528093929190818152602001838360200280828437600081840152601f19601f820116905080830192505050505050509192919290803590602001906401000000008111156104ab57600080fd5b8201836020820111156104bd57600080fd5b803590602001918460208302840111640100000000831117156104df57600080fd5b919080806020026020016040519081016040528093929190818152602001838360200280828437600081840152601f19601f8201169050808301925050505050505091929192908035906020019064010000000081111561053f57600080fd5b82018360208201111561055157600080fd5b8035906020019184600183028401116401000000008311171561057357600080fd5b91908080601f016020809104026020016040519081016040528093929190818152602001838380828437600081840152601f19601f820116905080830192505050505050509192919290505050610d97565b005b6105cf611222565b6040518082815260200191505060405180910390f35b61072f600480360360408110156105fb57600080fd5b810190808035906020019064010000000081111561061857600080fd5b82018360208201111561062a57600080fd5b8035906020019184602083028401116401000000008311171561064c57600080fd5b919080806020026020016040519081016040528093929190818152602001838360200280828437600081840152601f19601f820116905080830192505050505050509192919290803590602001906401000000008111156106ac57600080fd5b8201836020820111156106be57600080fd5b803590602001918460208302840111640100000000831117156106e057600080fd5b919080806020026020016040519081016040528093929190818152602001838360200280828437600081840152601f19601f820116905080830192505050505050509192919290505050611227565b6040518080602001828103825283818151815260200191508051906020019060200280838360005b83811015610772578082015181840152602081019050610757565b505050509050019250505060405180910390f35b61078e611419565b005b6107986115a4565b6040518082815260200191505060405180910390f35b6107b66115a9565b604051808273ffffffffffffffffffffffffffffffffffffffff16815260200191505060405180910390f35b610830600480360360408110156107f857600080fd5b81019080803573ffffffffffffffffffffffffffffffffffffffff1690602001909291908035151590602001909291905050506115d3565b005b61083a61176c565b6040518082815260200191505060405180910390f35b6108b26004803603604081101561086657600080fd5b81019080803573ffffffffffffffffffffffffffffffffffffffff169060200190929190803573ffffffffffffffffffffffffffffffffffffffff169060200190929190505050611771565b60405180821515815260200191505060405180910390f35b6108d2611805565b6040518082815260200191505060405180910390f35b6109f5600480360360a08110156108fe57600080fd5b81019080803573ffffffffffffffffffffffffffffffffffffffff169060200190929190803573ffffffffffffffffffffffffffffffffffffffff16906020019092919080359060200190929190803590602001909291908035906020019064010000000081111561096f57600080fd5b82018360208201111561098157600080fd5b803590602001918460018302840111640100000000831117156109a357600080fd5b91908080601f016020809104026020016040519081016040528093929190818152602001838380828437600081840152601f19601f82011690508083019250505050505050919291929050505061180a565b005b610a3960048036036020811015610a0d57600080fd5b81019080803573ffffffffffffffffffffffffffffffffffffffff169060200190929190505050611b7f565b005b600281565b60008073ffffffffffffffffffffffffffffffffffffffff168373ffffffffffffffffffffffffffffffffffffffff161415610ac7576040517f08c379a000000000000000000000000000000000000000000000000000000000815260040180806020018281038252602b81526020018061276f602b913960400191505060405180910390fd5b6001600083815260200190815260200160002060008473ffffffffffffffffffffffffffffffffffffffff1673ffffffffffffffffffffffffffffffffffffffff16815260200190815260200160002054905092915050565b6000806000837bffffffffffffffffffffffffffffffffffffffffffffffffffffffff19167bffffffffffffffffffffffffffffffffffffffffffffffffffffffff1916815260200190815260200160002060009054906101000a900460ff169050919050565b606060038054600181600116156101000203166002900480601f016020809104026020016040519081016040528092919081815260200182805460018160011615610100020316600290048015610c1f5780601f10610bf457610100808354040283529160200191610c1f565b820191906000526020600020905b815481529060010190602001808311610c0257829003601f168201915b50505050509050919050565b600381565b600081565b600781565b600581565b6000610c49611e62565b73ffffffffffffffffffffffffffffffffffffffff16600460009054906101000a900473ffffffffffffffffffffffffffffffffffffffff1673ffffffffffffffffffffffffffffffffffffffff1614610d0b576040517f08c379a00000000000000000000000000000000000000000000000000000000081526004018080602001828103825260208152602001807f4f776e61626c653a2063616c6c6572206973206e6f7420746865206f776e657281525060200191505060405180910390fd5b600073ffffffffffffffffffffffffffffffffffffffff168373ffffffffffffffffffffffffffffffffffffffff161415610d91576040517f08c379a000000000000000000000000000000000000000000000000000000000815260040180806020018281038252603081526020018061289b6030913960400191505060405180910390fd5b92915050565b8151835114610df1576040517f08c379a000000000000000000000000000000000000000000000000000000000815260040180806020018281038252602881526020018061291d6028913960400191505060405180910390fd5b600073ffffffffffffffffffffffffffffffffffffffff168473ffffffffffffffffffffffffffffffffffffffff161415610e77576040517f08c379a000000000000000000000000000000000000000000000000000000000815260040180806020018281038252602581526020018061281a6025913960400191505060405180910390fd5b610e7f611e62565b73ffffffffffffffffffffffffffffffffffffffff168573ffffffffffffffffffffffffffffffffffffffff161480610ec55750610ec485610ebf611e62565b611771565b5b610f1a576040517f08c379a000000000000000000000000000000000000000000000000000000000815260040180806020018281038252603281526020018061283f6032913960400191505060405180910390fd5b6000610f24611e62565b9050610f34818787878787611e6a565b60005b8451811015611105576000858281518110610f4e57fe5b602002602001015190506000858381518110610f6657fe5b60200260200101519050610fed816040518060600160405280602a8152602001612871602a91396001600086815260200190815260200160002060008d73ffffffffffffffffffffffffffffffffffffffff1673ffffffffffffffffffffffffffffffffffffffff16815260200190815260200160002054611e729092919063ffffffff16565b6001600084815260200190815260200160002060008b73ffffffffffffffffffffffffffffffffffffffff1673ffffffffffffffffffffffffffffffffffffffff168152602001908152602001600020819055506110a4816001600085815260200190815260200160002060008b73ffffffffffffffffffffffffffffffffffffffff1673ffffffffffffffffffffffffffffffffffffffff16815260200190815260200160002054611d8f90919063ffffffff16565b6001600084815260200190815260200160002060008a73ffffffffffffffffffffffffffffffffffffffff1673ffffffffffffffffffffffffffffffffffffffff168152602001908152602001600020819055505050806001019050610f37565b508473ffffffffffffffffffffffffffffffffffffffff168673ffffffffffffffffffffffffffffffffffffffff168273ffffffffffffffffffffffffffffffffffffffff167f4a39dc06d4c0dbc64b70af90fd698a233a518aa5d07e595d983b8c0526c8f7fb8787604051808060200180602001838103835285818151815260200191508051906020019060200280838360005b838110156111b557808201518184015260208101905061119a565b50505050905001838103825284818151815260200191508051906020019060200280838360005b838110156111f75780820151818401526020810190506111dc565b5050505090500194505050505060405180910390a461121a818787878787611f32565b505050505050565b600481565b60608151835114611283576040517f08c379a00000000000000000000000000000000000000000000000000000000081526004018080602001828103825260298152602001806128f46029913960400191505060405180910390fd5b6060835167ffffffffffffffff8111801561129d57600080fd5b506040519080825280602002602001820160405280156112cc5781602001602082028036833780820191505090505b50905060005b845181101561140e57600073ffffffffffffffffffffffffffffffffffffffff168582815181106112ff57fe5b602002602001015173ffffffffffffffffffffffffffffffffffffffff161415611374576040517f08c379a000000000000000000000000000000000000000000000000000000000815260040180806020018281038252603181526020018061279a6031913960400191505060405180910390fd5b6001600085838151811061138457fe5b6020026020010151815260200190815260200160002060008683815181106113a857fe5b602002602001015173ffffffffffffffffffffffffffffffffffffffff1673ffffffffffffffffffffffffffffffffffffffff168152602001908152602001600020548282815181106113f757fe5b6020026020010181815250508060010190506112d2565b508091505092915050565b611421611e62565b73ffffffffffffffffffffffffffffffffffffffff16600460009054906101000a900473ffffffffffffffffffffffffffffffffffffffff1673ffffffffffffffffffffffffffffffffffffffff16146114e3576040517f08c379a00000000000000000000000000000000000000000000000000000000081526004018080602001828103825260208152602001807f4f776e61626c653a2063616c6c6572206973206e6f7420746865206f776e657281525060200191505060405180910390fd5b600073ffffffffffffffffffffffffffffffffffffffff16600460009054906101000a900473ffffffffffffffffffffffffffffffffffffffff1673ffffffffffffffffffffffffffffffffffffffff167f8be0079c531659141344cd1fd0a4f28419497f9722a3daafe3b4186f6b6457e060405160405180910390a36000600460006101000a81548173ffffffffffffffffffffffffffffffffffffffff021916908373ffffffffffffffffffffffffffffffffffffffff160217905550565b600181565b6000600460009054906101000a900473ffffffffffffffffffffffffffffffffffffffff16905090565b8173ffffffffffffffffffffffffffffffffffffffff166115f2611e62565b73ffffffffffffffffffffffffffffffffffffffff16141561165f576040517f08c379a00000000000000000000000000000000000000000000000000000000081526004018080602001828103825260298152602001806128cb6029913960400191505060405180910390fd5b806002600061166c611e62565b73ffffffffffffffffffffffffffffffffffffffff1673ffffffffffffffffffffffffffffffffffffffff16815260200190815260200160002060008473ffffffffffffffffffffffffffffffffffffffff1673ffffffffffffffffffffffffffffffffffffffff16815260200190815260200160002060006101000a81548160ff0219169083151502179055508173ffffffffffffffffffffffffffffffffffffffff16611719611e62565b73ffffffffffffffffffffffffffffffffffffffff167f17307eab39ab6107e8899845ad3d59bd9653f200f220920489ca2b5937696c318360405180821515815260200191505060405180910390a35050565b600681565b6000600260008473ffffffffffffffffffffffffffffffffffffffff1673ffffffffffffffffffffffffffffffffffffffff16815260200190815260200160002060008373ffffffffffffffffffffffffffffffffffffffff1673ffffffffffffffffffffffffffffffffffffffff16815260200190815260200160002060009054906101000a900460ff16905092915050565b600881565b600073ffffffffffffffffffffffffffffffffffffffff168473ffffffffffffffffffffffffffffffffffffffff161415611890576040517f08c379a000000000000000000000000000000000000000000000000000000000815260040180806020018281038252602581526020018061281a6025913960400191505060405180910390fd5b611898611e62565b73ffffffffffffffffffffffffffffffffffffffff168573ffffffffffffffffffffffffffffffffffffffff1614806118de57506118dd856118d8611e62565b611771565b5b611933576040517f08c379a00000000000000000000000000000000000000000000000000000000081526004018080602001828103825260298152602001806127f16029913960400191505060405180910390fd5b600061193d611e62565b905061195d81878761194e886122c1565b611957886122c1565b87611e6a565b6119da836040518060600160405280602a8152602001612871602a91396001600088815260200190815260200160002060008a73ffffffffffffffffffffffffffffffffffffffff1673ffffffffffffffffffffffffffffffffffffffff16815260200190815260200160002054611e729092919063ffffffff16565b6001600086815260200190815260200160002060008873ffffffffffffffffffffffffffffffffffffffff1673ffffffffffffffffffffffffffffffffffffffff16815260200190815260200160002081905550611a91836001600087815260200190815260200160002060008873ffffffffffffffffffffffffffffffffffffffff1673ffffffffffffffffffffffffffffffffffffffff16815260200190815260200160002054611d8f90919063ffffffff16565b6001600086815260200190815260200160002060008773ffffffffffffffffffffffffffffffffffffffff1673ffffffffffffffffffffffffffffffffffffffff168152602001908152602001600020819055508473ffffffffffffffffffffffffffffffffffffffff168673ffffffffffffffffffffffffffffffffffffffff168273ffffffffffffffffffffffffffffffffffffffff167fc3d58168c5ae7397731d063d5bbf3d657854427343f4c083240f7aacaa2d0f628787604051808381526020018281526020019250505060405180910390a4611b77818787878787612331565b505050505050565b611b87611e62565b73ffffffffffffffffffffffffffffffffffffffff16600460009054906101000a900473ffffffffffffffffffffffffffffffffffffffff1673ffffffffffffffffffffffffffffffffffffffff1614611c49576040517f08c379a00000000000000000000000000000000000000000000000000000000081526004018080602001828103825260208152602001807f4f776e61626c653a2063616c6c6572206973206e6f7420746865206f776e657281525060200191505060405180910390fd5b600073ffffffffffffffffffffffffffffffffffffffff168173ffffffffffffffffffffffffffffffffffffffff161415611ccf576040517f08c379a00000000000000000000000000000000000000000000000000000000081526004018080602001828103825260268152602001806127cb6026913960400191505060405180910390fd5b8073ffffffffffffffffffffffffffffffffffffffff16600460009054906101000a900473ffffffffffffffffffffffffffffffffffffffff1673ffffffffffffffffffffffffffffffffffffffff167f8be0079c531659141344cd1fd0a4f28419497f9722a3daafe3b4186f6b6457e060405160405180910390a380600460006101000a81548173ffffffffffffffffffffffffffffffffffffffff021916908373ffffffffffffffffffffffffffffffffffffffff16021790555050565b600080828401905083811015611e0d576040517f08c379a000000000000000000000000000000000000000000000000000000000815260040180806020018281038252601b8152602001807f536166654d6174683a206164646974696f6e206f766572666c6f77000000000081525060200191505060405180910390fd5b8091505092915050565b60008060007fc5d2460186f7233c927e7db2dcc703c0e500b653ca82273b7bfad8045d85a47060001b9050833f9150808214158015611e5957506000801b8214155b92505050919050565b600033905090565b505050505050565b6000838311158290611f1f576040517f08c379a00000000000000000000000000000000000000000000000000000000081526004018080602001828103825283818151815260200191508051906020019080838360005b83811015611ee4578082015181840152602081019050611ec9565b50505050905090810190601f168015611f115780820380516001836020036101000a031916815260200191505b509250505060405180910390fd5b5060008385039050809150509392505050565b611f518473ffffffffffffffffffffffffffffffffffffffff16611e17565b156122b9578373ffffffffffffffffffffffffffffffffffffffff1663bc197c8187878686866040518663ffffffff1660e01b8152600401808673ffffffffffffffffffffffffffffffffffffffff1681526020018573ffffffffffffffffffffffffffffffffffffffff168152602001806020018060200180602001848103845287818151815260200191508051906020019060200280838360005b83811015612009578082015181840152602081019050611fee565b50505050905001848103835286818151815260200191508051906020019060200280838360005b8381101561204b578082015181840152602081019050612030565b50505050905001848103825285818151815260200191508051906020019080838360005b8381101561208a57808201518184015260208101905061206f565b50505050905090810190601f1680156120b75780820380516001836020036101000a031916815260200191505b5098505050505050505050602060405180830381600087803b1580156120dc57600080fd5b505af192505050801561211057506040513d60208110156120fc57600080fd5b810190808051906020019092919050505060015b61221a5761211c61265c565b8061212757506121c9565b806040517f08c379a00000000000000000000000000000000000000000000000000000000081526004018080602001828103825283818151815260200191508051906020019080838360005b8381101561218e578082015181840152602081019050612173565b50505050905090810190601f1680156121bb5780820380516001836020036101000a031916815260200191505b509250505060405180910390fd5b6040517f08c379a00000000000000000000000000000000000000000000000000000000081526004018080602001828103825260348152602001806127136034913960400191505060405180910390fd5b63bc197c8160e01b7bffffffffffffffffffffffffffffffffffffffffffffffffffffffff1916817bffffffffffffffffffffffffffffffffffffffffffffffffffffffff1916146122b7576040517f08c379a00000000000000000000000000000000000000000000000000000000081526004018080602001828103825260288152602001806127476028913960400191505060405180910390fd5b505b505050505050565b606080600167ffffffffffffffff811180156122dc57600080fd5b5060405190808252806020026020018201604052801561230b5781602001602082028036833780820191505090505b509050828160008151811061231c57fe5b60200260200101818152505080915050919050565b6123508473ffffffffffffffffffffffffffffffffffffffff16611e17565b15612636578373ffffffffffffffffffffffffffffffffffffffff1663f23a6e6187878686866040518663ffffffff1660e01b8152600401808673ffffffffffffffffffffffffffffffffffffffff1681526020018573ffffffffffffffffffffffffffffffffffffffff16815260200184815260200183815260200180602001828103825283818151815260200191508051906020019080838360005b838110156124095780820151818401526020810190506123ee565b50505050905090810190601f1680156124365780820380516001836020036101000a031916815260200191505b509650505050505050602060405180830381600087803b15801561245957600080fd5b505af192505050801561248d57506040513d602081101561247957600080fd5b810190808051906020019092919050505060015b6125975761249961265c565b806124a45750612546565b806040517f08c379a00000000000000000000000000000000000000000000000000000000081526004018080602001828103825283818151815260200191508051906020019080838360005b8381101561250b5780820151818401526020810190506124f0565b50505050905090810190601f1680156125385780820380516001836020036101000a031916815260200191505b509250505060405180910390fd5b6040517f08c379a00000000000000000000000000000000000000000000000000000000081526004018080602001828103825260348152602001806127136034913960400191505060405180910390fd5b63f23a6e6160e01b7bffffffffffffffffffffffffffffffffffffffffffffffffffffffff1916817bffffffffffffffffffffffffffffffffffffffffffffffffffffffff191614612634576040517f08c379a00000000000000000000000000000000000000000000000000000000081526004018080602001828103825260288152602001806127476028913960400191505060405180910390fd5b505b505050505050565b6000601f19601f8301169050919050565b60008160e01c9050919050565b600060443d101561266c5761270f565b60046000803e61267d60005161264f565b6308c379a0811461268e575061270f565b60405160043d036004823e80513d602482011167ffffffffffffffff821117156126ba5750505061270f565b808201805167ffffffffffffffff8111156126d957505050505061270f565b8060208301013d85018111156126f45750505050505061270f565b6126fd8261263e565b60208401016040528296505050505050505b9056fe455243313135353a207472616e7366657220746f206e6f6e2045524331313535526563656976657220696d706c656d656e746572455243313135353a204552433131353552656365697665722072656a656374656420746f6b656e73455243313135353a2062616c616e636520717565727920666f7220746865207a65726f2061646472657373455243313135353a2062617463682062616c616e636520717565727920666f7220746865207a65726f20616464726573734f776e61626c653a206e6577206f776e657220697320746865207a65726f2061646472657373455243313135353a2063616c6c6572206973206e6f74206f776e6572206e6f7220617070726f766564455243313135353a207472616e7366657220746f20746865207a65726f2061646472657373455243313135353a207472616e736665722063616c6c6572206973206e6f74206f776e6572206e6f7220617070726f766564455243313135353a20696e73756666696369656e742062616c616e636520666f72207472616e73666572455243313135353a2063616e6e6f74206177617264207374616d7020666f7220746865207a65726f2061646472657373455243313135353a2073657474696e6720617070726f76616c2073746174757320666f722073656c66455243313135353a206163636f756e747320616e6420696473206c656e677468206d69736d61746368455243313135353a2069647320616e6420616d6f756e7473206c656e677468206d69736d61746368a26469706673582212200e94d89a56b09dd0a34bd0ae2b6cf7617fb9e9356fc133401f8ed7273f5731b264736f6c63430007030033455243313135353a207472616e7366657220746f206e6f6e2045524331313535526563656976657220696d706c656d656e746572455243313135353a204552433131353552656365697665722072656a656374656420746f6b656e7368747470733a2f2f6c6f67696b2d67656e657369732d6170692e6865726f6b756170702e636f6d2f6170692f7374616d70732f302f7b69647d2e6a736f6e455243313135353a206d696e7420746f20746865207a65726f2061646472657373",
  "linkReferences": {},
  "deployedLinkReferences": {}
}