{
  "_format": "hh-sol-artifact-1",
  "contractName": "LOGIKGif",
  "sourceName": "contracts/LOGIKGif.sol",
  "abi": [
    {
      "inputs": [],
      "stateMutability": "nonpayable",
      "type": "constructor"
    },
    {
      "anonymous": false,
      "inputs": [
        {
          "indexed": true,
          "internalType": "address",
          "name": "account",
          "type": "address"
        },
        {
          "indexed": true,
          "internalType": "address",
          "name": "operator",
          "type": "address"
        },
        {
          "indexed": false,
          "internalType": "bool",
          "name": "approved",
          "type": "bool"
        }
      ],
      "name": "ApprovalForAll",
      "type": "event"
    },
    {
      "anonymous": false,
      "inputs": [
        {
          "indexed": true,
          "internalType": "address",
          "name": "previousOwner",
          "type": "address"
        },
        {
          "indexed": true,
          "internalType": "address",
          "name": "newOwner",
          "type": "address"
        }
      ],
      "name": "OwnershipTransferred",
      "type": "event"
    },
    {
      "anonymous": false,
      "inputs": [
        {
          "indexed": true,
          "internalType": "address",
          "name": "operator",
          "type": "address"
        },
        {
          "indexed": true,
          "internalType": "address",
          "name": "from",
          "type": "address"
        },
        {
          "indexed": true,
          "internalType": "address",
          "name": "to",
          "type": "address"
        },
        {
          "indexed": false,
          "internalType": "uint256[]",
          "name": "ids",
          "type": "uint256[]"
        },
        {
          "indexed": false,
          "internalType": "uint256[]",
          "name": "values",
          "type": "uint256[]"
        }
      ],
      "name": "TransferBatch",
      "type": "event"
    },
    {
      "anonymous": false,
      "inputs": [
        {
          "indexed": true,
          "internalType": "address",
          "name": "operator",
          "type": "address"
        },
        {
          "indexed": true,
          "internalType": "address",
          "name": "from",
          "type": "address"
        },
        {
          "indexed": true,
          "internalType": "address",
          "name": "to",
          "type": "address"
        },
        {
          "indexed": false,
          "internalType": "uint256",
          "name": "id",
          "type": "uint256"
        },
        {
          "indexed": false,
          "internalType": "uint256",
          "name": "value",
          "type": "uint256"
        }
      ],
      "name": "TransferSingle",
      "type": "event"
    },
    {
      "anonymous": false,
      "inputs": [
        {
          "indexed": false,
          "internalType": "string",
          "name": "value",
          "type": "string"
        },
        {
          "indexed": true,
          "internalType": "uint256",
          "name": "id",
          "type": "uint256"
        }
      ],
      "name": "URI",
      "type": "event"
    },
    {
      "inputs": [],
      "name": "NUM_GIFFYS",
      "outputs": [
        {
          "internalType": "uint256",
          "name": "",
          "type": "uint256"
        }
      ],
      "stateMutability": "view",
      "type": "function"
    },
    {
      "inputs": [
        {
          "internalType": "address",
          "name": "account",
          "type": "address"
        },
        {
          "internalType": "uint256",
          "name": "id",
          "type": "uint256"
        }
      ],
      "name": "balanceOf",
      "outputs": [
        {
          "internalType": "uint256",
          "name": "",
          "type": "uint256"
        }
      ],
      "stateMutability": "view",
      "type": "function"
    },
    {
      "inputs": [
        {
          "internalType": "address[]",
          "name": "accounts",
          "type": "address[]"
        },
        {
          "internalType": "uint256[]",
          "name": "ids",
          "type": "uint256[]"
        }
      ],
      "name": "balanceOfBatch",
      "outputs": [
        {
          "internalType": "uint256[]",
          "name": "",
          "type": "uint256[]"
        }
      ],
      "stateMutability": "view",
      "type": "function"
    },
    {
      "inputs": [
        {
          "internalType": "address",
          "name": "account",
          "type": "address"
        },
        {
          "internalType": "address",
          "name": "operator",
          "type": "address"
        }
      ],
      "name": "isApprovedForAll",
      "outputs": [
        {
          "internalType": "bool",
          "name": "",
          "type": "bool"
        }
      ],
      "stateMutability": "view",
      "type": "function"
    },
    {
      "inputs": [],
      "name": "owner",
      "outputs": [
        {
          "internalType": "address",
          "name": "",
          "type": "address"
        }
      ],
      "stateMutability": "view",
      "type": "function"
    },
    {
      "inputs": [],
      "name": "renounceOwnership",
      "outputs": [],
      "stateMutability": "nonpayable",
      "type": "function"
    },
    {
      "inputs": [
        {
          "internalType": "address",
          "name": "from",
          "type": "address"
        },
        {
          "internalType": "address",
          "name": "to",
          "type": "address"
        },
        {
          "internalType": "uint256[]",
          "name": "ids",
          "type": "uint256[]"
        },
        {
          "internalType": "uint256[]",
          "name": "amounts",
          "type": "uint256[]"
        },
        {
          "internalType": "bytes",
          "name": "data",
          "type": "bytes"
        }
      ],
      "name": "safeBatchTransferFrom",
      "outputs": [],
      "stateMutability": "nonpayable",
      "type": "function"
    },
    {
      "inputs": [
        {
          "internalType": "address",
          "name": "from",
          "type": "address"
        },
        {
          "internalType": "address",
          "name": "to",
          "type": "address"
        },
        {
          "internalType": "uint256",
          "name": "id",
          "type": "uint256"
        },
        {
          "internalType": "uint256",
          "name": "amount",
          "type": "uint256"
        },
        {
          "internalType": "bytes",
          "name": "data",
          "type": "bytes"
        }
      ],
      "name": "safeTransferFrom",
      "outputs": [],
      "stateMutability": "nonpayable",
      "type": "function"
    },
    {
      "inputs": [
        {
          "internalType": "address",
          "name": "operator",
          "type": "address"
        },
        {
          "internalType": "bool",
          "name": "approved",
          "type": "bool"
        }
      ],
      "name": "setApprovalForAll",
      "outputs": [],
      "stateMutability": "nonpayable",
      "type": "function"
    },
    {
      "inputs": [
        {
          "internalType": "bytes4",
          "name": "interfaceId",
          "type": "bytes4"
        }
      ],
      "name": "supportsInterface",
      "outputs": [
        {
          "internalType": "bool",
          "name": "",
          "type": "bool"
        }
      ],
      "stateMutability": "view",
      "type": "function"
    },
    {
      "inputs": [
        {
          "internalType": "address",
          "name": "newOwner",
          "type": "address"
        }
      ],
      "name": "transferOwnership",
      "outputs": [],
      "stateMutability": "nonpayable",
      "type": "function"
    },
    {
      "inputs": [
        {
          "internalType": "uint256",
          "name": "",
          "type": "uint256"
        }
      ],
      "name": "uri",
      "outputs": [
        {
          "internalType": "string",
          "name": "",
          "type": "string"
        }
      ],
      "stateMutability": "view",
      "type": "function"
    }
  ],
  "bytecode": "0x60806040523480156200001157600080fd5b506040518060600160405280603c815260200162002f65603c9139620000446301ffc9a760e01b6200016260201b60201c565b62000055816200026b60201b60201c565b6200006d63d9b67a2660e01b6200016260201b60201c565b62000085630e89341c60e01b6200016260201b60201c565b506000620000986200028760201b60201c565b905080600460006101000a81548173ffffffffffffffffffffffffffffffffffffffff021916908373ffffffffffffffffffffffffffffffffffffffff1602179055508073ffffffffffffffffffffffffffffffffffffffff16600073ffffffffffffffffffffffffffffffffffffffff167f8be0079c531659141344cd1fd0a4f28419497f9722a3daafe3b4186f6b6457e060405160405180910390a3506200015c3360006064604051806020016040528060008152506200028f60201b60201c565b62000a8e565b63ffffffff60e01b817bffffffffffffffffffffffffffffffffffffffffffffffffffffffff19161415620001ff576040517f08c379a000000000000000000000000000000000000000000000000000000000815260040180806020018281038252601c8152602001807f4552433136353a20696e76616c696420696e746572666163652069640000000081525060200191505060405180910390fd5b6001600080837bffffffffffffffffffffffffffffffffffffffffffffffffffffffff19167bffffffffffffffffffffffffffffffffffffffffffffffffffffffff1916815260200190815260200160002060006101000a81548160ff02191690831515021790555050565b80600390805190602001906200028392919062000906565b5050565b600033905090565b600073ffffffffffffffffffffffffffffffffffffffff168473ffffffffffffffffffffffffffffffffffffffff16141562000317576040517f08c379a000000000000000000000000000000000000000000000000000000000815260040180806020018281038252602181526020018062002fa16021913960400191505060405180910390fd5b6000620003296200028760201b60201c565b905062000362816000876200034488620004c360201b60201c565b6200035588620004c360201b60201c565b876200053660201b60201c565b620003cc836001600087815260200190815260200160002060008873ffffffffffffffffffffffffffffffffffffffff1673ffffffffffffffffffffffffffffffffffffffff168152602001908152602001600020546200053e60201b6200191f1790919060201c565b6001600086815260200190815260200160002060008773ffffffffffffffffffffffffffffffffffffffff1673ffffffffffffffffffffffffffffffffffffffff168152602001908152602001600020819055508473ffffffffffffffffffffffffffffffffffffffff16600073ffffffffffffffffffffffffffffffffffffffff168273ffffffffffffffffffffffffffffffffffffffff167fc3d58168c5ae7397731d063d5bbf3d657854427343f4c083240f7aacaa2d0f628787604051808381526020018281526020019250505060405180910390a4620004bc81600087878787620005c760201b60201c565b5050505050565b606080600167ffffffffffffffff81118015620004df57600080fd5b506040519080825280602002602001820160405280156200050f5781602001602082028036833780820191505090505b50905082816000815181106200052157fe5b60200260200101818152505080915050919050565b505050505050565b600080828401905083811015620005bd576040517f08c379a000000000000000000000000000000000000000000000000000000000815260040180806020018281038252601b8152602001807f536166654d6174683a206164646974696f6e206f766572666c6f77000000000081525060200191505060405180910390fd5b8091505092915050565b620005f38473ffffffffffffffffffffffffffffffffffffffff16620008f360201b620019a71760201c565b15620008eb578373ffffffffffffffffffffffffffffffffffffffff1663f23a6e6187878686866040518663ffffffff1660e01b8152600401808673ffffffffffffffffffffffffffffffffffffffff1681526020018573ffffffffffffffffffffffffffffffffffffffff16815260200184815260200183815260200180602001828103825283818151815260200191508051906020019080838360005b83811015620006af57808201518184015260208101905062000692565b50505050905090810190601f168015620006dd5780820380516001836020036101000a031916815260200191505b509650505050505050602060405180830381600087803b1580156200070157600080fd5b505af19250505080156200073757506040513d60208110156200072357600080fd5b810190808051906020019092919050505060015b6200084a5762000746620009ca565b80620007535750620007f8565b806040517f08c379a00000000000000000000000000000000000000000000000000000000081526004018080602001828103825283818151815260200191508051906020019080838360005b83811015620007bc5780820151818401526020810190506200079f565b50505050905090810190601f168015620007ea5780820380516001836020036101000a031916815260200191505b509250505060405180910390fd5b6040517f08c379a000000000000000000000000000000000000000000000000000000000815260040180806020018281038252603481526020018062002f096034913960400191505060405180910390fd5b63f23a6e6160e01b7bffffffffffffffffffffffffffffffffffffffffffffffffffffffff1916817bffffffffffffffffffffffffffffffffffffffffffffffffffffffff191614620008e9576040517f08c379a000000000000000000000000000000000000000000000000000000000815260040180806020018281038252602881526020018062002f3d6028913960400191505060405180910390fd5b505b505050505050565b600080823b905060008111915050919050565b828054600181600116156101000203166002900490600052602060002090601f016020900481019282601f106200094957805160ff19168380011785556200097a565b828001600101855582156200097a579182015b82811115620009795782518255916020019190600101906200095c565b5b5090506200098991906200098d565b5090565b5b80821115620009a85760008160009055506001016200098e565b5090565b6000601f19601f8301169050919050565b60008160e01c9050919050565b600060443d1015620009dc5762000a8b565b60046000803e620009ef600051620009bd565b6308c379a0811462000a02575062000a8b565b60405160043d036004823e80513d602482011167ffffffffffffffff8211171562000a305750505062000a8b565b808201805167ffffffffffffffff81111562000a5157505050505062000a8b565b8060208301013d850181111562000a6e5750505050505062000a8b565b62000a7982620009ac565b60208401016040528296505050505050505b90565b61246b8062000a9e6000396000f3fe608060405234801561001057600080fd5b50600436106100b35760003560e01c80638da5cb5b116100715780638da5cb5b146105f2578063a22cb46514610626578063e985e9c514610676578063f242432a146106f0578063f2fde38b146107ff578063f4dbe0e414610843576100b3565b8062fdd58e146100b857806301ffc9a71461011a5780630e89341c1461017d5780632eb2c2d6146102245780634e1273f414610447578063715018a6146105e8575b600080fd5b610104600480360360408110156100ce57600080fd5b81019080803573ffffffffffffffffffffffffffffffffffffffff16906020019092919080359060200190929190505050610861565b6040518082815260200191505060405180910390f35b6101656004803603602081101561013057600080fd5b8101908080357bffffffffffffffffffffffffffffffffffffffffffffffffffffffff19169060200190929190505050610941565b60405180821515815260200191505060405180910390f35b6101a96004803603602081101561019357600080fd5b81019080803590602001909291905050506109a8565b6040518080602001828103825283818151815260200191508051906020019080838360005b838110156101e95780820151818401526020810190506101ce565b50505050905090810190601f1680156102165780820380516001836020036101000a031916815260200191505b509250505060405180910390f35b610445600480360360a081101561023a57600080fd5b81019080803573ffffffffffffffffffffffffffffffffffffffff169060200190929190803573ffffffffffffffffffffffffffffffffffffffff1690602001909291908035906020019064010000000081111561029757600080fd5b8201836020820111156102a957600080fd5b803590602001918460208302840111640100000000831117156102cb57600080fd5b919080806020026020016040519081016040528093929190818152602001838360200280828437600081840152601f19601f8201169050808301925050505050505091929192908035906020019064010000000081111561032b57600080fd5b82018360208201111561033d57600080fd5b8035906020019184602083028401116401000000008311171561035f57600080fd5b919080806020026020016040519081016040528093929190818152602001838360200280828437600081840152601f19601f820116905080830192505050505050509192919290803590602001906401000000008111156103bf57600080fd5b8201836020820111156103d157600080fd5b803590602001918460018302840111640100000000831117156103f357600080fd5b91908080601f016020809104026020016040519081016040528093929190818152602001838380828437600081840152601f19601f820116905080830192505050505050509192919290505050610a4c565b005b6105916004803603604081101561045d57600080fd5b810190808035906020019064010000000081111561047a57600080fd5b82018360208201111561048c57600080fd5b803590602001918460208302840111640100000000831117156104ae57600080fd5b919080806020026020016040519081016040528093929190818152602001838360200280828437600081840152601f19601f8201169050808301925050505050505091929192908035906020019064010000000081111561050e57600080fd5b82018360208201111561052057600080fd5b8035906020019184602083028401116401000000008311171561054257600080fd5b919080806020026020016040519081016040528093929190818152602001838360200280828437600081840152601f19601f820116905080830192505050505050509192919290505050610ed7565b6040518080602001828103825283818151815260200191508051906020019060200280838360005b838110156105d45780820151818401526020810190506105b9565b505050509050019250505060405180910390f35b6105f0610fe9565b005b6105fa611159565b604051808273ffffffffffffffffffffffffffffffffffffffff16815260200191505060405180910390f35b6106746004803603604081101561063c57600080fd5b81019080803573ffffffffffffffffffffffffffffffffffffffff169060200190929190803515159060200190929190505050611183565b005b6106d86004803603604081101561068c57600080fd5b81019080803573ffffffffffffffffffffffffffffffffffffffff169060200190929190803573ffffffffffffffffffffffffffffffffffffffff16906020019092919050505061131c565b60405180821515815260200191505060405180910390f35b6107fd600480360360a081101561070657600080fd5b81019080803573ffffffffffffffffffffffffffffffffffffffff169060200190929190803573ffffffffffffffffffffffffffffffffffffffff16906020019092919080359060200190929190803590602001909291908035906020019064010000000081111561077757600080fd5b82018360208201111561078957600080fd5b803590602001918460018302840111640100000000831117156107ab57600080fd5b91908080601f016020809104026020016040519081016040528093929190818152602001838380828437600081840152601f19601f8201169050808301925050505050505091929192905050506113b0565b005b6108416004803603602081101561081557600080fd5b81019080803573ffffffffffffffffffffffffffffffffffffffff169060200190929190505050611725565b005b61084b61191a565b6040518082815260200191505060405180910390f35b60008073ffffffffffffffffffffffffffffffffffffffff168373ffffffffffffffffffffffffffffffffffffffff1614156108e8576040517f08c379a000000000000000000000000000000000000000000000000000000000815260040180806020018281038252602b8152602001806122c1602b913960400191505060405180910390fd5b6001600083815260200190815260200160002060008473ffffffffffffffffffffffffffffffffffffffff1673ffffffffffffffffffffffffffffffffffffffff16815260200190815260200160002054905092915050565b6000806000837bffffffffffffffffffffffffffffffffffffffffffffffffffffffff19167bffffffffffffffffffffffffffffffffffffffffffffffffffffffff1916815260200190815260200160002060009054906101000a900460ff169050919050565b606060038054600181600116156101000203166002900480601f016020809104026020016040519081016040528092919081815260200182805460018160011615610100020316600290048015610a405780601f10610a1557610100808354040283529160200191610a40565b820191906000526020600020905b815481529060010190602001808311610a2357829003601f168201915b50505050509050919050565b8151835114610aa6576040517f08c379a000000000000000000000000000000000000000000000000000000000815260040180806020018281038252602881526020018061240e6028913960400191505060405180910390fd5b600073ffffffffffffffffffffffffffffffffffffffff168473ffffffffffffffffffffffffffffffffffffffff161415610b2c576040517f08c379a000000000000000000000000000000000000000000000000000000000815260040180806020018281038252602581526020018061233b6025913960400191505060405180910390fd5b610b346119ba565b73ffffffffffffffffffffffffffffffffffffffff168573ffffffffffffffffffffffffffffffffffffffff161480610b7a5750610b7985610b746119ba565b61131c565b5b610bcf576040517f08c379a00000000000000000000000000000000000000000000000000000000081526004018080602001828103825260328152602001806123606032913960400191505060405180910390fd5b6000610bd96119ba565b9050610be98187878787876119c2565b60005b8451811015610dba576000858281518110610c0357fe5b602002602001015190506000858381518110610c1b57fe5b60200260200101519050610ca2816040518060600160405280602a8152602001612392602a91396001600086815260200190815260200160002060008d73ffffffffffffffffffffffffffffffffffffffff1673ffffffffffffffffffffffffffffffffffffffff168152602001908152602001600020546119ca9092919063ffffffff16565b6001600084815260200190815260200160002060008b73ffffffffffffffffffffffffffffffffffffffff1673ffffffffffffffffffffffffffffffffffffffff16815260200190815260200160002081905550610d59816001600085815260200190815260200160002060008b73ffffffffffffffffffffffffffffffffffffffff1673ffffffffffffffffffffffffffffffffffffffff1681526020019081526020016000205461191f90919063ffffffff16565b6001600084815260200190815260200160002060008a73ffffffffffffffffffffffffffffffffffffffff1673ffffffffffffffffffffffffffffffffffffffff168152602001908152602001600020819055505050806001019050610bec565b508473ffffffffffffffffffffffffffffffffffffffff168673ffffffffffffffffffffffffffffffffffffffff168273ffffffffffffffffffffffffffffffffffffffff167f4a39dc06d4c0dbc64b70af90fd698a233a518aa5d07e595d983b8c0526c8f7fb8787604051808060200180602001838103835285818151815260200191508051906020019060200280838360005b83811015610e6a578082015181840152602081019050610e4f565b50505050905001838103825284818151815260200191508051906020019060200280838360005b83811015610eac578082015181840152602081019050610e91565b5050505090500194505050505060405180910390a4610ecf818787878787611a84565b505050505050565b60608151835114610f33576040517f08c379a00000000000000000000000000000000000000000000000000000000081526004018080602001828103825260298152602001806123e56029913960400191505060405180910390fd5b6060835167ffffffffffffffff81118015610f4d57600080fd5b50604051908082528060200260200182016040528015610f7c5781602001602082028036833780820191505090505b50905060005b8451811015610fde57610fbb858281518110610f9a57fe5b6020026020010151858381518110610fae57fe5b6020026020010151610861565b828281518110610fc757fe5b602002602001018181525050806001019050610f82565b508091505092915050565b610ff16119ba565b73ffffffffffffffffffffffffffffffffffffffff1661100f611159565b73ffffffffffffffffffffffffffffffffffffffff1614611098576040517f08c379a00000000000000000000000000000000000000000000000000000000081526004018080602001828103825260208152602001807f4f776e61626c653a2063616c6c6572206973206e6f7420746865206f776e657281525060200191505060405180910390fd5b600073ffffffffffffffffffffffffffffffffffffffff16600460009054906101000a900473ffffffffffffffffffffffffffffffffffffffff1673ffffffffffffffffffffffffffffffffffffffff167f8be0079c531659141344cd1fd0a4f28419497f9722a3daafe3b4186f6b6457e060405160405180910390a36000600460006101000a81548173ffffffffffffffffffffffffffffffffffffffff021916908373ffffffffffffffffffffffffffffffffffffffff160217905550565b6000600460009054906101000a900473ffffffffffffffffffffffffffffffffffffffff16905090565b8173ffffffffffffffffffffffffffffffffffffffff166111a26119ba565b73ffffffffffffffffffffffffffffffffffffffff16141561120f576040517f08c379a00000000000000000000000000000000000000000000000000000000081526004018080602001828103825260298152602001806123bc6029913960400191505060405180910390fd5b806002600061121c6119ba565b73ffffffffffffffffffffffffffffffffffffffff1673ffffffffffffffffffffffffffffffffffffffff16815260200190815260200160002060008473ffffffffffffffffffffffffffffffffffffffff1673ffffffffffffffffffffffffffffffffffffffff16815260200190815260200160002060006101000a81548160ff0219169083151502179055508173ffffffffffffffffffffffffffffffffffffffff166112c96119ba565b73ffffffffffffffffffffffffffffffffffffffff167f17307eab39ab6107e8899845ad3d59bd9653f200f220920489ca2b5937696c318360405180821515815260200191505060405180910390a35050565b6000600260008473ffffffffffffffffffffffffffffffffffffffff1673ffffffffffffffffffffffffffffffffffffffff16815260200190815260200160002060008373ffffffffffffffffffffffffffffffffffffffff1673ffffffffffffffffffffffffffffffffffffffff16815260200190815260200160002060009054906101000a900460ff16905092915050565b600073ffffffffffffffffffffffffffffffffffffffff168473ffffffffffffffffffffffffffffffffffffffff161415611436576040517f08c379a000000000000000000000000000000000000000000000000000000000815260040180806020018281038252602581526020018061233b6025913960400191505060405180910390fd5b61143e6119ba565b73ffffffffffffffffffffffffffffffffffffffff168573ffffffffffffffffffffffffffffffffffffffff16148061148457506114838561147e6119ba565b61131c565b5b6114d9576040517f08c379a00000000000000000000000000000000000000000000000000000000081526004018080602001828103825260298152602001806123126029913960400191505060405180910390fd5b60006114e36119ba565b90506115038187876114f488611e13565b6114fd88611e13565b876119c2565b611580836040518060600160405280602a8152602001612392602a91396001600088815260200190815260200160002060008a73ffffffffffffffffffffffffffffffffffffffff1673ffffffffffffffffffffffffffffffffffffffff168152602001908152602001600020546119ca9092919063ffffffff16565b6001600086815260200190815260200160002060008873ffffffffffffffffffffffffffffffffffffffff1673ffffffffffffffffffffffffffffffffffffffff16815260200190815260200160002081905550611637836001600087815260200190815260200160002060008873ffffffffffffffffffffffffffffffffffffffff1673ffffffffffffffffffffffffffffffffffffffff1681526020019081526020016000205461191f90919063ffffffff16565b6001600086815260200190815260200160002060008773ffffffffffffffffffffffffffffffffffffffff1673ffffffffffffffffffffffffffffffffffffffff168152602001908152602001600020819055508473ffffffffffffffffffffffffffffffffffffffff168673ffffffffffffffffffffffffffffffffffffffff168273ffffffffffffffffffffffffffffffffffffffff167fc3d58168c5ae7397731d063d5bbf3d657854427343f4c083240f7aacaa2d0f628787604051808381526020018281526020019250505060405180910390a461171d818787878787611e83565b505050505050565b61172d6119ba565b73ffffffffffffffffffffffffffffffffffffffff1661174b611159565b73ffffffffffffffffffffffffffffffffffffffff16146117d4576040517f08c379a00000000000000000000000000000000000000000000000000000000081526004018080602001828103825260208152602001807f4f776e61626c653a2063616c6c6572206973206e6f7420746865206f776e657281525060200191505060405180910390fd5b600073ffffffffffffffffffffffffffffffffffffffff168173ffffffffffffffffffffffffffffffffffffffff16141561185a576040517f08c379a00000000000000000000000000000000000000000000000000000000081526004018080602001828103825260268152602001806122ec6026913960400191505060405180910390fd5b8073ffffffffffffffffffffffffffffffffffffffff16600460009054906101000a900473ffffffffffffffffffffffffffffffffffffffff1673ffffffffffffffffffffffffffffffffffffffff167f8be0079c531659141344cd1fd0a4f28419497f9722a3daafe3b4186f6b6457e060405160405180910390a380600460006101000a81548173ffffffffffffffffffffffffffffffffffffffff021916908373ffffffffffffffffffffffffffffffffffffffff16021790555050565b606481565b60008082840190508381101561199d576040517f08c379a000000000000000000000000000000000000000000000000000000000815260040180806020018281038252601b8152602001807f536166654d6174683a206164646974696f6e206f766572666c6f77000000000081525060200191505060405180910390fd5b8091505092915050565b600080823b905060008111915050919050565b600033905090565b505050505050565b6000838311158290611a77576040517f08c379a00000000000000000000000000000000000000000000000000000000081526004018080602001828103825283818151815260200191508051906020019080838360005b83811015611a3c578082015181840152602081019050611a21565b50505050905090810190601f168015611a695780820380516001836020036101000a031916815260200191505b509250505060405180910390fd5b5082840390509392505050565b611aa38473ffffffffffffffffffffffffffffffffffffffff166119a7565b15611e0b578373ffffffffffffffffffffffffffffffffffffffff1663bc197c8187878686866040518663ffffffff1660e01b8152600401808673ffffffffffffffffffffffffffffffffffffffff1681526020018573ffffffffffffffffffffffffffffffffffffffff168152602001806020018060200180602001848103845287818151815260200191508051906020019060200280838360005b83811015611b5b578082015181840152602081019050611b40565b50505050905001848103835286818151815260200191508051906020019060200280838360005b83811015611b9d578082015181840152602081019050611b82565b50505050905001848103825285818151815260200191508051906020019080838360005b83811015611bdc578082015181840152602081019050611bc1565b50505050905090810190601f168015611c095780820380516001836020036101000a031916815260200191505b5098505050505050505050602060405180830381600087803b158015611c2e57600080fd5b505af1925050508015611c6257506040513d6020811015611c4e57600080fd5b810190808051906020019092919050505060015b611d6c57611c6e6121ae565b80611c795750611d1b565b806040517f08c379a00000000000000000000000000000000000000000000000000000000081526004018080602001828103825283818151815260200191508051906020019080838360005b83811015611ce0578082015181840152602081019050611cc5565b50505050905090810190601f168015611d0d5780820380516001836020036101000a031916815260200191505b509250505060405180910390fd5b6040517f08c379a00000000000000000000000000000000000000000000000000000000081526004018080602001828103825260348152602001806122656034913960400191505060405180910390fd5b63bc197c8160e01b7bffffffffffffffffffffffffffffffffffffffffffffffffffffffff1916817bffffffffffffffffffffffffffffffffffffffffffffffffffffffff191614611e09576040517f08c379a00000000000000000000000000000000000000000000000000000000081526004018080602001828103825260288152602001806122996028913960400191505060405180910390fd5b505b505050505050565b606080600167ffffffffffffffff81118015611e2e57600080fd5b50604051908082528060200260200182016040528015611e5d5781602001602082028036833780820191505090505b5090508281600081518110611e6e57fe5b60200260200101818152505080915050919050565b611ea28473ffffffffffffffffffffffffffffffffffffffff166119a7565b15612188578373ffffffffffffffffffffffffffffffffffffffff1663f23a6e6187878686866040518663ffffffff1660e01b8152600401808673ffffffffffffffffffffffffffffffffffffffff1681526020018573ffffffffffffffffffffffffffffffffffffffff16815260200184815260200183815260200180602001828103825283818151815260200191508051906020019080838360005b83811015611f5b578082015181840152602081019050611f40565b50505050905090810190601f168015611f885780820380516001836020036101000a031916815260200191505b509650505050505050602060405180830381600087803b158015611fab57600080fd5b505af1925050508015611fdf57506040513d6020811015611fcb57600080fd5b810190808051906020019092919050505060015b6120e957611feb6121ae565b80611ff65750612098565b806040517f08c379a00000000000000000000000000000000000000000000000000000000081526004018080602001828103825283818151815260200191508051906020019080838360005b8381101561205d578082015181840152602081019050612042565b50505050905090810190601f16801561208a5780820380516001836020036101000a031916815260200191505b509250505060405180910390fd5b6040517f08c379a00000000000000000000000000000000000000000000000000000000081526004018080602001828103825260348152602001806122656034913960400191505060405180910390fd5b63f23a6e6160e01b7bffffffffffffffffffffffffffffffffffffffffffffffffffffffff1916817bffffffffffffffffffffffffffffffffffffffffffffffffffffffff191614612186576040517f08c379a00000000000000000000000000000000000000000000000000000000081526004018080602001828103825260288152602001806122996028913960400191505060405180910390fd5b505b505050505050565b6000601f19601f8301169050919050565b60008160e01c9050919050565b600060443d10156121be57612261565b60046000803e6121cf6000516121a1565b6308c379a081146121e05750612261565b60405160043d036004823e80513d602482011167ffffffffffffffff8211171561220c57505050612261565b808201805167ffffffffffffffff81111561222b575050505050612261565b8060208301013d850181111561224657505050505050612261565b61224f82612190565b60208401016040528296505050505050505b9056fe455243313135353a207472616e7366657220746f206e6f6e2045524331313535526563656976657220696d706c656d656e746572455243313135353a204552433131353552656365697665722072656a656374656420746f6b656e73455243313135353a2062616c616e636520717565727920666f7220746865207a65726f20616464726573734f776e61626c653a206e6577206f776e657220697320746865207a65726f2061646472657373455243313135353a2063616c6c6572206973206e6f74206f776e6572206e6f7220617070726f766564455243313135353a207472616e7366657220746f20746865207a65726f2061646472657373455243313135353a207472616e736665722063616c6c6572206973206e6f74206f776e6572206e6f7220617070726f766564455243313135353a20696e73756666696369656e742062616c616e636520666f72207472616e73666572455243313135353a2073657474696e6720617070726f76616c2073746174757320666f722073656c66455243313135353a206163636f756e747320616e6420696473206c656e677468206d69736d61746368455243313135353a2069647320616e6420616d6f756e7473206c656e677468206d69736d61746368a26469706673582212203171e5c14fdedbc7ff5ee18d1f87aebd9f52aae0dd2aa196aed096701f14b2db64736f6c63430007030033455243313135353a207472616e7366657220746f206e6f6e2045524331313535526563656976657220696d706c656d656e746572455243313135353a204552433131353552656365697665722072656a656374656420746f6b656e7368747470733a2f2f6c6f67696b2d67656e657369732d6170692e6865726f6b756170702e636f6d2f6170692f6f746865722f67696666792e6a736f6e455243313135353a206d696e7420746f20746865207a65726f2061646472657373",
  "linkReferences": {},
  "deployedLinkReferences": {}
}