{
  "_format": "hh-sol-artifact-1",
  "contractName": "Plug",
  "sourceName": "contracts/Plug.sol",
  "abi": [
    {
      "inputs": [],
      "stateMutability": "nonpayable",
      "type": "constructor"
    },
    {
      "anonymous": false,
      "inputs": [
        {
          "indexed": true,
          "internalType": "address",
          "name": "owner",
          "type": "address"
        },
        {
          "indexed": true,
          "internalType": "address",
          "name": "approved",
          "type": "address"
        },
        {
          "indexed": true,
          "internalType": "uint256",
          "name": "tokenId",
          "type": "uint256"
        }
      ],
      "name": "Approval",
      "type": "event"
    },
    {
      "anonymous": false,
      "inputs": [
        {
          "indexed": true,
          "internalType": "address",
          "name": "owner",
          "type": "address"
        },
        {
          "indexed": true,
          "internalType": "address",
          "name": "operator",
          "type": "address"
        },
        {
          "indexed": false,
          "internalType": "bool",
          "name": "approved",
          "type": "bool"
        }
      ],
      "name": "ApprovalForAll",
      "type": "event"
    },
    {
      "anonymous": false,
      "inputs": [
        {
          "indexed": true,
          "internalType": "address",
          "name": "previousOwner",
          "type": "address"
        },
        {
          "indexed": true,
          "internalType": "address",
          "name": "newOwner",
          "type": "address"
        }
      ],
      "name": "OwnershipTransferred",
      "type": "event"
    },
    {
      "anonymous": false,
      "inputs": [
        {
          "indexed": true,
          "internalType": "address",
          "name": "from",
          "type": "address"
        },
        {
          "indexed": true,
          "internalType": "address",
          "name": "to",
          "type": "address"
        },
        {
          "indexed": true,
          "internalType": "uint256",
          "name": "tokenId",
          "type": "uint256"
        }
      ],
      "name": "Transfer",
      "type": "event"
    },
    {
      "inputs": [
        {
          "internalType": "address",
          "name": "to",
          "type": "address"
        },
        {
          "internalType": "uint256",
          "name": "tokenId",
          "type": "uint256"
        }
      ],
      "name": "approve",
      "outputs": [],
      "stateMutability": "nonpayable",
      "type": "function"
    },
    {
      "inputs": [
        {
          "internalType": "address",
          "name": "owner",
          "type": "address"
        }
      ],
      "name": "balanceOf",
      "outputs": [
        {
          "internalType": "uint256",
          "name": "",
          "type": "uint256"
        }
      ],
      "stateMutability": "view",
      "type": "function"
    },
    {
      "inputs": [],
      "name": "baseURI",
      "outputs": [
        {
          "internalType": "string",
          "name": "",
          "type": "string"
        }
      ],
      "stateMutability": "view",
      "type": "function"
    },
    {
      "inputs": [
        {
          "internalType": "uint256",
          "name": "tokenId",
          "type": "uint256"
        }
      ],
      "name": "getApproved",
      "outputs": [
        {
          "internalType": "address",
          "name": "",
          "type": "address"
        }
      ],
      "stateMutability": "view",
      "type": "function"
    },
    {
      "inputs": [
        {
          "internalType": "address",
          "name": "owner",
          "type": "address"
        },
        {
          "internalType": "address",
          "name": "operator",
          "type": "address"
        }
      ],
      "name": "isApprovedForAll",
      "outputs": [
        {
          "internalType": "bool",
          "name": "",
          "type": "bool"
        }
      ],
      "stateMutability": "view",
      "type": "function"
    },
    {
      "inputs": [
        {
          "internalType": "string",
          "name": "assetHash",
          "type": "string"
        }
      ],
      "name": "listLevelOwners",
      "outputs": [
        {
          "internalType": "address[]",
          "name": "",
          "type": "address[]"
        }
      ],
      "stateMutability": "nonpayable",
      "type": "function"
    },
    {
      "inputs": [
        {
          "internalType": "address",
          "name": "recipient",
          "type": "address"
        }
      ],
      "name": "mintPlug",
      "outputs": [
        {
          "internalType": "uint256",
          "name": "",
          "type": "uint256"
        }
      ],
      "stateMutability": "nonpayable",
      "type": "function"
    },
    {
      "inputs": [],
      "name": "name",
      "outputs": [
        {
          "internalType": "string",
          "name": "",
          "type": "string"
        }
      ],
      "stateMutability": "view",
      "type": "function"
    },
    {
      "inputs": [],
      "name": "owner",
      "outputs": [
        {
          "internalType": "address",
          "name": "",
          "type": "address"
        }
      ],
      "stateMutability": "view",
      "type": "function"
    },
    {
      "inputs": [
        {
          "internalType": "uint256",
          "name": "tokenId",
          "type": "uint256"
        }
      ],
      "name": "ownerOf",
      "outputs": [
        {
          "internalType": "address",
          "name": "",
          "type": "address"
        }
      ],
      "stateMutability": "view",
      "type": "function"
    },
    {
      "inputs": [],
      "name": "renounceOwnership",
      "outputs": [],
      "stateMutability": "nonpayable",
      "type": "function"
    },
    {
      "inputs": [
        {
          "internalType": "address",
          "name": "from",
          "type": "address"
        },
        {
          "internalType": "address",
          "name": "to",
          "type": "address"
        },
        {
          "internalType": "uint256",
          "name": "tokenId",
          "type": "uint256"
        }
      ],
      "name": "safeTransferFrom",
      "outputs": [],
      "stateMutability": "nonpayable",
      "type": "function"
    },
    {
      "inputs": [
        {
          "internalType": "address",
          "name": "from",
          "type": "address"
        },
        {
          "internalType": "address",
          "name": "to",
          "type": "address"
        },
        {
          "internalType": "uint256",
          "name": "tokenId",
          "type": "uint256"
        },
        {
          "internalType": "bytes",
          "name": "_data",
          "type": "bytes"
        }
      ],
      "name": "safeTransferFrom",
      "outputs": [],
      "stateMutability": "nonpayable",
      "type": "function"
    },
    {
      "inputs": [
        {
          "internalType": "address",
          "name": "operator",
          "type": "address"
        },
        {
          "internalType": "bool",
          "name": "approved",
          "type": "bool"
        }
      ],
      "name": "setApprovalForAll",
      "outputs": [],
      "stateMutability": "nonpayable",
      "type": "function"
    },
    {
      "inputs": [
        {
          "internalType": "bytes4",
          "name": "interfaceId",
          "type": "bytes4"
        }
      ],
      "name": "supportsInterface",
      "outputs": [
        {
          "internalType": "bool",
          "name": "",
          "type": "bool"
        }
      ],
      "stateMutability": "view",
      "type": "function"
    },
    {
      "inputs": [],
      "name": "symbol",
      "outputs": [
        {
          "internalType": "string",
          "name": "",
          "type": "string"
        }
      ],
      "stateMutability": "view",
      "type": "function"
    },
    {
      "inputs": [
        {
          "internalType": "uint256",
          "name": "index",
          "type": "uint256"
        }
      ],
      "name": "tokenByIndex",
      "outputs": [
        {
          "internalType": "uint256",
          "name": "",
          "type": "uint256"
        }
      ],
      "stateMutability": "view",
      "type": "function"
    },
    {
      "inputs": [
        {
          "internalType": "address",
          "name": "owner",
          "type": "address"
        },
        {
          "internalType": "uint256",
          "name": "index",
          "type": "uint256"
        }
      ],
      "name": "tokenOfOwnerByIndex",
      "outputs": [
        {
          "internalType": "uint256",
          "name": "",
          "type": "uint256"
        }
      ],
      "stateMutability": "view",
      "type": "function"
    },
    {
      "inputs": [
        {
          "internalType": "uint256",
          "name": "tokenId",
          "type": "uint256"
        }
      ],
      "name": "tokenURI",
      "outputs": [
        {
          "internalType": "string",
          "name": "",
          "type": "string"
        }
      ],
      "stateMutability": "view",
      "type": "function"
    },
    {
      "inputs": [],
      "name": "totalSupply",
      "outputs": [
        {
          "internalType": "uint256",
          "name": "",
          "type": "uint256"
        }
      ],
      "stateMutability": "view",
      "type": "function"
    },
    {
      "inputs": [
        {
          "internalType": "address",
          "name": "from",
          "type": "address"
        },
        {
          "internalType": "address",
          "name": "to",
          "type": "address"
        },
        {
          "internalType": "uint256",
          "name": "tokenId",
          "type": "uint256"
        }
      ],
      "name": "transferFrom",
      "outputs": [],
      "stateMutability": "nonpayable",
      "type": "function"
    },
    {
      "inputs": [
        {
          "internalType": "address",
          "name": "newOwner",
          "type": "address"
        }
      ],
      "name": "transferOwnership",
      "outputs": [],
      "stateMutability": "nonpayable",
      "type": "function"
    }
  ],
  "bytecode": "0x60806040526000600c60006101000a81548161ffff021916908361ffff1602179055506000600c60026101000a81548160ff021916908360ff1602179055506040518060e001604052806040518060600160405280602e815260200162003966602e913981526020016040518060600160405280602e81526020016200390a602e913981526020016040518060600160405280602e8152602001620038dc602e913981526020016040518060600160405280602e8152602001620038ae602e913981526020016040518060600160405280602e8152602001620039c2602e913981526020016040518060600160405280602e815260200162003994602e913981526020016040518060600160405280602e815260200162003938602e9139815250600e90600762000132929190620003ea565b503480156200014057600080fd5b506040518060400160405280600b81526020017f4c4f47494b3a20506c7567000000000000000000000000000000000000000000815250604051806020016040528060008152506200019f6301ffc9a760e01b620002d960201b60201c565b8160069080519060200190620001b792919062000444565b508060079080519060200190620001d092919062000444565b50620001e96380ac58cd60e01b620002d960201b60201c565b62000201635b5e139f60e01b620002d960201b60201c565b6200021963780e9d6360e01b620002d960201b60201c565b505060006200022d620003e260201b60201c565b905080600a60006101000a81548173ffffffffffffffffffffffffffffffffffffffff021916908373ffffffffffffffffffffffffffffffffffffffff1602179055508073ffffffffffffffffffffffffffffffffffffffff16600073ffffffffffffffffffffffffffffffffffffffff167f8be0079c531659141344cd1fd0a4f28419497f9722a3daafe3b4186f6b6457e060405160405180910390a35042600d819055506200055e565b63ffffffff60e01b817bffffffffffffffffffffffffffffffffffffffffffffffffffffffff1916141562000376576040517f08c379a000000000000000000000000000000000000000000000000000000000815260040180806020018281038252601c8152602001807f4552433136353a20696e76616c696420696e746572666163652069640000000081525060200191505060405180910390fd5b6001600080837bffffffffffffffffffffffffffffffffffffffffffffffffffffffff19167bffffffffffffffffffffffffffffffffffffffffffffffffffffffff1916815260200190815260200160002060006101000a81548160ff02191690831515021790555050565b600033905090565b826007810192821562000431579160200282015b82811115620004305782518290805190602001906200041f92919062000444565b5091602001919060010190620003fe565b5b509050620004409190620004cb565b5090565b828054600181600116156101000203166002900490600052602060002090601f016020900481019282601f106200048757805160ff1916838001178555620004b8565b82800160010185558215620004b8579182015b82811115620004b75782518255916020019190600101906200049a565b5b509050620004c79190620004f3565b5090565b5b80821115620004ef5760008181620004e5919062000512565b50600101620004cc565b5090565b5b808211156200050e576000816000905550600101620004f4565b5090565b50805460018160011615610100020316600290046000825580601f106200053a57506200055b565b601f0160209004906000526020600020908101906200055a9190620004f3565b5b50565b613340806200056e6000396000f3fe608060405234801561001057600080fd5b50600436106101425760003560e01c806370a08231116100b857806395d89b411161007c57806395d89b411461074a578063a22cb465146107cd578063b88d4fde1461081d578063c87b56dd14610922578063e985e9c5146109c9578063f2fde38b14610a4357610142565b806370a082311461054c578063715018a6146105a45780638d651eaf146105ae5780638da5cb5b146106be57806391642072146106f257610142565b806323b872dd1161010a57806323b872dd146102f15780632f745c591461035f57806342842e0e146103c15780634f6ccce71461042f5780636352211e146104715780636c0360eb146104c957610142565b806301ffc9a71461014757806306fdde03146101aa578063081812fc1461022d578063095ea7b31461028557806318160ddd146102d3575b600080fd5b6101926004803603602081101561015d57600080fd5b8101908080357bffffffffffffffffffffffffffffffffffffffffffffffffffffffff19169060200190929190505050610a87565b60405180821515815260200191505060405180910390f35b6101b2610aee565b6040518080602001828103825283818151815260200191508051906020019080838360005b838110156101f25780820151818401526020810190506101d7565b50505050905090810190601f16801561021f5780820380516001836020036101000a031916815260200191505b509250505060405180910390f35b6102596004803603602081101561024357600080fd5b8101908080359060200190929190505050610b90565b604051808273ffffffffffffffffffffffffffffffffffffffff16815260200191505060405180910390f35b6102d16004803603604081101561029b57600080fd5b81019080803573ffffffffffffffffffffffffffffffffffffffff16906020019092919080359060200190929190505050610c2b565b005b6102db610d6f565b6040518082815260200191505060405180910390f35b61035d6004803603606081101561030757600080fd5b81019080803573ffffffffffffffffffffffffffffffffffffffff169060200190929190803573ffffffffffffffffffffffffffffffffffffffff16906020019092919080359060200190929190505050610d80565b005b6103ab6004803603604081101561037557600080fd5b81019080803573ffffffffffffffffffffffffffffffffffffffff16906020019092919080359060200190929190505050610df6565b6040518082815260200191505060405180910390f35b61042d600480360360608110156103d757600080fd5b81019080803573ffffffffffffffffffffffffffffffffffffffff169060200190929190803573ffffffffffffffffffffffffffffffffffffffff16906020019092919080359060200190929190505050610e51565b005b61045b6004803603602081101561044557600080fd5b8101908080359060200190929190505050610e78565b6040518082815260200191505060405180910390f35b61049d6004803603602081101561048757600080fd5b8101908080359060200190929190505050610e9b565b604051808273ffffffffffffffffffffffffffffffffffffffff16815260200191505060405180910390f35b6104d1610ed2565b6040518080602001828103825283818151815260200191508051906020019080838360005b838110156105115780820151818401526020810190506104f6565b50505050905090810190601f16801561053e5780820380516001836020036101000a031916815260200191505b509250505060405180910390f35b61058e6004803603602081101561056257600080fd5b81019080803573ffffffffffffffffffffffffffffffffffffffff169060200190929190505050610f74565b6040518082815260200191505060405180910390f35b6105ac611049565b005b610667600480360360208110156105c457600080fd5b81019080803590602001906401000000008111156105e157600080fd5b8201836020820111156105f357600080fd5b8035906020019184600183028401116401000000008311171561061557600080fd5b91908080601f016020809104026020016040519081016040528093929190818152602001838380828437600081840152601f19601f8201169050808301925050505050505091929192905050506111b9565b6040518080602001828103825283818151815260200191508051906020019060200280838360005b838110156106aa57808201518184015260208101905061068f565b505050509050019250505060405180910390f35b6106c66112be565b604051808273ffffffffffffffffffffffffffffffffffffffff16815260200191505060405180910390f35b6107346004803603602081101561070857600080fd5b81019080803573ffffffffffffffffffffffffffffffffffffffff1690602001909291905050506112e8565b6040518082815260200191505060405180910390f35b6107526113c4565b6040518080602001828103825283818151815260200191508051906020019080838360005b83811015610792578082015181840152602081019050610777565b50505050905090810190601f1680156107bf5780820380516001836020036101000a031916815260200191505b509250505060405180910390f35b61081b600480360360408110156107e357600080fd5b81019080803573ffffffffffffffffffffffffffffffffffffffff169060200190929190803515159060200190929190505050611466565b005b6109206004803603608081101561083357600080fd5b81019080803573ffffffffffffffffffffffffffffffffffffffff169060200190929190803573ffffffffffffffffffffffffffffffffffffffff169060200190929190803590602001909291908035906020019064010000000081111561089a57600080fd5b8201836020820111156108ac57600080fd5b803590602001918460018302840111640100000000831117156108ce57600080fd5b91908080601f016020809104026020016040519081016040528093929190818152602001838380828437600081840152601f19601f82011690508083019250505050505050919291929050505061161c565b005b61094e6004803603602081101561093857600080fd5b8101908080359060200190929190505050611694565b6040518080602001828103825283818151815260200191508051906020019080838360005b8381101561098e578082015181840152602081019050610973565b50505050905090810190601f1680156109bb5780820380516001836020036101000a031916815260200191505b509250505060405180910390f35b610a2b600480360360408110156109df57600080fd5b81019080803573ffffffffffffffffffffffffffffffffffffffff169060200190929190803573ffffffffffffffffffffffffffffffffffffffff1690602001909291905050506117d4565b60405180821515815260200191505060405180910390f35b610a8560048036036020811015610a5957600080fd5b81019080803573ffffffffffffffffffffffffffffffffffffffff169060200190929190505050611868565b005b6000806000837bffffffffffffffffffffffffffffffffffffffffffffffffffffffff19167bffffffffffffffffffffffffffffffffffffffffffffffffffffffff1916815260200190815260200160002060009054906101000a900460ff169050919050565b606060068054600181600116156101000203166002900480601f016020809104026020016040519081016040528092919081815260200182805460018160011615610100020316600290048015610b865780601f10610b5b57610100808354040283529160200191610b86565b820191906000526020600020905b815481529060010190602001808311610b6957829003601f168201915b5050505050905090565b6000610b9b82611a5d565b610bf0576040517f08c379a000000000000000000000000000000000000000000000000000000000815260040180806020018281038252602c815260200180613186602c913960400191505060405180910390fd5b6004600083815260200190815260200160002060009054906101000a900473ffffffffffffffffffffffffffffffffffffffff169050919050565b6000610c3682610e9b565b90508073ffffffffffffffffffffffffffffffffffffffff168373ffffffffffffffffffffffffffffffffffffffff161415610cbd576040517f08c379a00000000000000000000000000000000000000000000000000000000081526004018080602001828103825260218152602001806132386021913960400191505060405180910390fd5b8073ffffffffffffffffffffffffffffffffffffffff16610cdc611a7a565b73ffffffffffffffffffffffffffffffffffffffff161480610d0b5750610d0a81610d05611a7a565b6117d4565b5b610d60576040517f08c379a00000000000000000000000000000000000000000000000000000000081526004018080602001828103825260388152602001806130d96038913960400191505060405180910390fd5b610d6a8383611a82565b505050565b6000610d7b6002611b3b565b905090565b610d91610d8b611a7a565b82611b50565b610de6576040517f08c379a00000000000000000000000000000000000000000000000000000000081526004018080602001828103825260318152602001806132596031913960400191505060405180910390fd5b610df1838383611c44565b505050565b6000610e4982600160008673ffffffffffffffffffffffffffffffffffffffff1673ffffffffffffffffffffffffffffffffffffffff168152602001908152602001600020611e8790919063ffffffff16565b905092915050565b42600d81905550610e738383836040518060200160405280600081525061161c565b505050565b600080610e8f836002611ea190919063ffffffff16565b50905080915050919050565b6000610ecb8260405180606001604052806029815260200161313b602991396002611ecd9092919063ffffffff16565b9050919050565b606060098054600181600116156101000203166002900480601f016020809104026020016040519081016040528092919081815260200182805460018160011615610100020316600290048015610f6a5780601f10610f3f57610100808354040283529160200191610f6a565b820191906000526020600020905b815481529060010190602001808311610f4d57829003601f168201915b5050505050905090565b60008073ffffffffffffffffffffffffffffffffffffffff168273ffffffffffffffffffffffffffffffffffffffff161415610ffb576040517f08c379a000000000000000000000000000000000000000000000000000000000815260040180806020018281038252602a815260200180613111602a913960400191505060405180910390fd5b611042600160008473ffffffffffffffffffffffffffffffffffffffff1673ffffffffffffffffffffffffffffffffffffffff168152602001908152602001600020611eec565b9050919050565b611051611a7a565b73ffffffffffffffffffffffffffffffffffffffff1661106f6112be565b73ffffffffffffffffffffffffffffffffffffffff16146110f8576040517f08c379a00000000000000000000000000000000000000000000000000000000081526004018080602001828103825260208152602001807f4f776e61626c653a2063616c6c6572206973206e6f7420746865206f776e657281525060200191505060405180910390fd5b600073ffffffffffffffffffffffffffffffffffffffff16600a60009054906101000a900473ffffffffffffffffffffffffffffffffffffffff1673ffffffffffffffffffffffffffffffffffffffff167f8be0079c531659141344cd1fd0a4f28419497f9722a3daafe3b4186f6b6457e060405160405180910390a36000600a60006101000a81548173ffffffffffffffffffffffffffffffffffffffff021916908373ffffffffffffffffffffffffffffffffffffffff160217905550565b60606111c482611f01565b611219576040517f08c379a00000000000000000000000000000000000000000000000000000000081526004018080602001828103825260258152602001806132b86025913960400191505060405180910390fd5b6060600080600190505b600a81116112b357606061123682612022565b905061124281876121af565b156112a557600061125283610e9b565b90508085858151811061126157fe5b602002602001019073ffffffffffffffffffffffffffffffffffffffff16908173ffffffffffffffffffffffffffffffffffffffff16815250508380600101945050505b508080600101915050611223565b829350505050919050565b6000600a60009054906101000a900473ffffffffffffffffffffffffffffffffffffffff16905090565b60006112f2611a7a565b73ffffffffffffffffffffffffffffffffffffffff166113106112be565b73ffffffffffffffffffffffffffffffffffffffff1614611399576040517f08c379a00000000000000000000000000000000000000000000000000000000081526004018080602001828103825260208152602001807f4f776e61626c653a2063616c6c6572206973206e6f7420746865206f776e657281525060200191505060405180910390fd5b6113a3600b6121eb565b60006113af600b612201565b90506113bb838261220f565b80915050919050565b606060078054600181600116156101000203166002900480601f01602080910402602001604051908101604052809291908181526020018280546001816001161561010002031660029004801561145c5780601f106114315761010080835404028352916020019161145c565b820191906000526020600020905b81548152906001019060200180831161143f57829003601f168201915b5050505050905090565b61146e611a7a565b73ffffffffffffffffffffffffffffffffffffffff168273ffffffffffffffffffffffffffffffffffffffff16141561150f576040517f08c379a00000000000000000000000000000000000000000000000000000000081526004018080602001828103825260198152602001807f4552433732313a20617070726f766520746f2063616c6c65720000000000000081525060200191505060405180910390fd5b806005600061151c611a7a565b73ffffffffffffffffffffffffffffffffffffffff1673ffffffffffffffffffffffffffffffffffffffff16815260200190815260200160002060008473ffffffffffffffffffffffffffffffffffffffff1673ffffffffffffffffffffffffffffffffffffffff16815260200190815260200160002060006101000a81548160ff0219169083151502179055508173ffffffffffffffffffffffffffffffffffffffff166115c9611a7a565b73ffffffffffffffffffffffffffffffffffffffff167f17307eab39ab6107e8899845ad3d59bd9653f200f220920489ca2b5937696c318360405180821515815260200191505060405180910390a35050565b61162d611627611a7a565b83611b50565b611682576040517f08c379a00000000000000000000000000000000000000000000000000000000081526004018080602001828103825260318152602001806132596031913960400191505060405180910390fd5b61168e8484848461222d565b50505050565b606061169f82611a5d565b6116f4576040517f08c379a000000000000000000000000000000000000000000000000000000000815260040180806020018281038252602f815260200180613209602f913960400191505060405180910390fd5b60606116fe61229f565b9050606061170b84612022565b905081816040516020018083805190602001908083835b602083106117455780518252602082019150602081019050602083039250611722565b6001836020036101000a03801982511681845116808217855250505050505090500182805190602001908083835b602083106117965780518252602082019150602081019050602083039250611773565b6001836020036101000a0380198251168184511680821785525050505050509050019250505060405160208183030381529060405292505050919050565b6000600560008473ffffffffffffffffffffffffffffffffffffffff1673ffffffffffffffffffffffffffffffffffffffff16815260200190815260200160002060008373ffffffffffffffffffffffffffffffffffffffff1673ffffffffffffffffffffffffffffffffffffffff16815260200190815260200160002060009054906101000a900460ff16905092915050565b611870611a7a565b73ffffffffffffffffffffffffffffffffffffffff1661188e6112be565b73ffffffffffffffffffffffffffffffffffffffff1614611917576040517f08c379a00000000000000000000000000000000000000000000000000000000081526004018080602001828103825260208152602001807f4f776e61626c653a2063616c6c6572206973206e6f7420746865206f776e657281525060200191505060405180910390fd5b600073ffffffffffffffffffffffffffffffffffffffff168173ffffffffffffffffffffffffffffffffffffffff16141561199d576040517f08c379a0000000000000000000000000000000000000000000000000000000008152600401808060200182810382526026815260200180612fb36026913960400191505060405180910390fd5b8073ffffffffffffffffffffffffffffffffffffffff16600a60009054906101000a900473ffffffffffffffffffffffffffffffffffffffff1673ffffffffffffffffffffffffffffffffffffffff167f8be0079c531659141344cd1fd0a4f28419497f9722a3daafe3b4186f6b6457e060405160405180910390a380600a60006101000a81548173ffffffffffffffffffffffffffffffffffffffff021916908373ffffffffffffffffffffffffffffffffffffffff16021790555050565b6000611a738260026122dc90919063ffffffff16565b9050919050565b600033905090565b816004600083815260200190815260200160002060006101000a81548173ffffffffffffffffffffffffffffffffffffffff021916908373ffffffffffffffffffffffffffffffffffffffff160217905550808273ffffffffffffffffffffffffffffffffffffffff16611af583610e9b565b73ffffffffffffffffffffffffffffffffffffffff167f8c5be1e5ebec7d5bd14f71427d1e84f3dd0314c0f7b2291e5b200ac8c7c3b92560405160405180910390a45050565b6000611b49826000016122f6565b9050919050565b6000611b5b82611a5d565b611bb0576040517f08c379a000000000000000000000000000000000000000000000000000000000815260040180806020018281038252602c81526020018061307f602c913960400191505060405180910390fd5b6000611bbb83610e9b565b90508073ffffffffffffffffffffffffffffffffffffffff168473ffffffffffffffffffffffffffffffffffffffff161480611c2a57508373ffffffffffffffffffffffffffffffffffffffff16611c1284610b90565b73ffffffffffffffffffffffffffffffffffffffff16145b80611c3b5750611c3a81856117d4565b5b91505092915050565b8273ffffffffffffffffffffffffffffffffffffffff16611c6482610e9b565b73ffffffffffffffffffffffffffffffffffffffff1614611cd0576040517f08c379a00000000000000000000000000000000000000000000000000000000081526004018080602001828103825260298152602001806131e06029913960400191505060405180910390fd5b600073ffffffffffffffffffffffffffffffffffffffff168273ffffffffffffffffffffffffffffffffffffffff161415611d56576040517f08c379a0000000000000000000000000000000000000000000000000000000008152600401808060200182810382526024815260200180612fd96024913960400191505060405180910390fd5b611d61838383612307565b611d6c600082611a82565b611dbd81600160008673ffffffffffffffffffffffffffffffffffffffff1673ffffffffffffffffffffffffffffffffffffffff16815260200190815260200160002061230c90919063ffffffff16565b50611e0f81600160008573ffffffffffffffffffffffffffffffffffffffff1673ffffffffffffffffffffffffffffffffffffffff16815260200190815260200160002061232690919063ffffffff16565b50611e26818360026123409092919063ffffffff16565b50808273ffffffffffffffffffffffffffffffffffffffff168473ffffffffffffffffffffffffffffffffffffffff167fddf252ad1be2c89b69c2b068fc378daa952ba7f163c4a11628f55a4df523b3ef60405160405180910390a4505050565b6000611e968360000183612375565b60001c905092915050565b600080600080611eb486600001866123f8565b915091508160001c8160001c9350935050509250929050565b6000611ee0846000018460001b84612491565b60001c90509392505050565b6000611efa82600001612587565b9050919050565b6000611f25826040518060600160405280602e81526020016131b2602e91396121af565b80611f4e5750611f4d826040518060600160405280602e815260200161302b602e91396121af565b5b80611f775750611f76826040518060600160405280602e8152602001612ffd602e91396121af565b5b80611fa05750611f9f826040518060600160405280602e8152602001612f53602e91396121af565b5b80611fc95750611fc8826040518060600160405280602e81526020016132dd602e91396121af565b5b80611ff25750611ff1826040518060600160405280602e815260200161328a602e91396121af565b5b8061201b575061201a826040518060600160405280602e81526020016130ab602e91396121af565b5b9050919050565b606061202d82611a5d565b612082576040517f08c379a000000000000000000000000000000000000000000000000000000000815260040180806020018281038252602f815260200180613209602f913960400191505060405180910390fd5b600062015180600d5442038161209457fe5b049050600681106120c0576040518060600160405280602e81526020016130ab602e91399150506121aa565b600581106120e9576040518060600160405280602e815260200161328a602e91399150506121aa565b60048110612112576040518060600160405280602e81526020016132dd602e91399150506121aa565b6003811061213b576040518060600160405280602e8152602001612f53602e91399150506121aa565b60028110612164576040518060600160405280602e8152602001612ffd602e91399150506121aa565b6001811061218d576040518060600160405280602e815260200161302b602e91399150506121aa565b6040518060600160405280602e81526020016131b2602e91399150505b919050565b60006060839050606083905080518251146121cf576000925050506121e5565b8080519060200120828051906020012014925050505b92915050565b6001816000016000828254019250508190555050565b600081600001549050919050565b612229828260405180602001604052806000815250612598565b5050565b612238848484611c44565b61224484848484612609565b612299576040517f08c379a0000000000000000000000000000000000000000000000000000000008152600401808060200182810382526032815260200180612f816032913960400191505060405180910390fd5b50505050565b60606040518060400160405280601581526020017f68747470733a2f2f697066732e696f2f697066732f0000000000000000000000815250905090565b60006122ee836000018360001b612822565b905092915050565b600081600001805490509050919050565b505050565b600061231e836000018360001b612845565b905092915050565b6000612338836000018360001b61292d565b905092915050565b600061236c846000018460001b8473ffffffffffffffffffffffffffffffffffffffff1660001b61299d565b90509392505050565b6000818360000180549050116123d6576040517f08c379a0000000000000000000000000000000000000000000000000000000008152600401808060200182810382526022815260200180612f316022913960400191505060405180910390fd5b8260000182815481106123e557fe5b9060005260206000200154905092915050565b6000808284600001805490501161245a576040517f08c379a00000000000000000000000000000000000000000000000000000000081526004018080602001828103825260228152602001806131646022913960400191505060405180910390fd5b600084600001848154811061246b57fe5b906000526020600020906002020190508060000154816001015492509250509250929050565b60008084600101600085815260200190815260200160002054905060008114158390612558576040517f08c379a00000000000000000000000000000000000000000000000000000000081526004018080602001828103825283818151815260200191508051906020019080838360005b8381101561251d578082015181840152602081019050612502565b50505050905090810190601f16801561254a5780820380516001836020036101000a031916815260200191505b509250505060405180910390fd5b5084600001600182038154811061256b57fe5b9060005260206000209060020201600101549150509392505050565b600081600001805490509050919050565b6125a28383612a79565b6125af6000848484612609565b612604576040517f08c379a0000000000000000000000000000000000000000000000000000000008152600401808060200182810382526032815260200180612f816032913960400191505060405180910390fd5b505050565b600061262a8473ffffffffffffffffffffffffffffffffffffffff16612c6d565b612637576001905061281a565b60606127a163150b7a0260e01b61264c611a7a565b888787604051602401808573ffffffffffffffffffffffffffffffffffffffff1681526020018473ffffffffffffffffffffffffffffffffffffffff16815260200183815260200180602001828103825283818151815260200191508051906020019080838360005b838110156126d05780820151818401526020810190506126b5565b50505050905090810190601f1680156126fd5780820380516001836020036101000a031916815260200191505b5095505050505050604051602081830303815290604052907bffffffffffffffffffffffffffffffffffffffffffffffffffffffff19166020820180517bffffffffffffffffffffffffffffffffffffffffffffffffffffffff8381831617835250505050604051806060016040528060328152602001612f81603291398773ffffffffffffffffffffffffffffffffffffffff16612c809092919063ffffffff16565b905060008180602001905160208110156127ba57600080fd5b8101908080519060200190929190505050905063150b7a0260e01b7bffffffffffffffffffffffffffffffffffffffffffffffffffffffff1916817bffffffffffffffffffffffffffffffffffffffffffffffffffffffff191614925050505b949350505050565b600080836001016000848152602001908152602001600020541415905092915050565b60008083600101600084815260200190815260200160002054905060008114612921576000600182039050600060018660000180549050039050600086600001828154811061289057fe5b90600052602060002001549050808760000184815481106128ad57fe5b90600052602060002001819055506001830187600101600083815260200190815260200160002081905550866000018054806128e557fe5b60019003818190600052602060002001600090559055866001016000878152602001908152602001600020600090556001945050505050612927565b60009150505b92915050565b60006129398383612c98565b612992578260000182908060018154018082558091505060019003906000526020600020016000909190919091505582600001805490508360010160008481526020019081526020016000208190555060019050612997565b600090505b92915050565b6000808460010160008581526020019081526020016000205490506000811415612a4457846000016040518060400160405280868152602001858152509080600181540180825580915050600190039060005260206000209060020201600090919091909150600082015181600001556020820151816001015550508460000180549050856001016000868152602001908152602001600020819055506001915050612a72565b82856000016001830381548110612a5757fe5b90600052602060002090600202016001018190555060009150505b9392505050565b600073ffffffffffffffffffffffffffffffffffffffff168273ffffffffffffffffffffffffffffffffffffffff161415612b1c576040517f08c379a00000000000000000000000000000000000000000000000000000000081526004018080602001828103825260208152602001807f4552433732313a206d696e7420746f20746865207a65726f206164647265737381525060200191505060405180910390fd5b612b2581611a5d565b15612b98576040517f08c379a000000000000000000000000000000000000000000000000000000000815260040180806020018281038252601c8152602001807f4552433732313a20746f6b656e20616c7265616479206d696e7465640000000081525060200191505060405180910390fd5b612ba460008383612307565b612bf581600160008573ffffffffffffffffffffffffffffffffffffffff1673ffffffffffffffffffffffffffffffffffffffff16815260200190815260200160002061232690919063ffffffff16565b50612c0c818360026123409092919063ffffffff16565b50808273ffffffffffffffffffffffffffffffffffffffff16600073ffffffffffffffffffffffffffffffffffffffff167fddf252ad1be2c89b69c2b068fc378daa952ba7f163c4a11628f55a4df523b3ef60405160405180910390a45050565b600080823b905060008111915050919050565b6060612c8f8484600085612cbb565b90509392505050565b600080836001016000848152602001908152602001600020541415905092915050565b606082471015612d16576040517f08c379a00000000000000000000000000000000000000000000000000000000081526004018080602001828103825260268152602001806130596026913960400191505060405180910390fd5b612d1f85612c6d565b612d91576040517f08c379a000000000000000000000000000000000000000000000000000000000815260040180806020018281038252601d8152602001807f416464726573733a2063616c6c20746f206e6f6e2d636f6e747261637400000081525060200191505060405180910390fd5b600060608673ffffffffffffffffffffffffffffffffffffffff1685876040518082805190602001908083835b60208310612de15780518252602082019150602081019050602083039250612dbe565b6001836020036101000a03801982511681845116808217855250505050505090500191505060006040518083038185875af1925050503d8060008114612e43576040519150601f19603f3d011682016040523d82523d6000602084013e612e48565b606091505b5091509150612e58828286612e64565b92505050949350505050565b60608315612e7457829050612f29565b600083511115612e875782518084602001fd5b816040517f08c379a00000000000000000000000000000000000000000000000000000000081526004018080602001828103825283818151815260200191508051906020019080838360005b83811015612eee578082015181840152602081019050612ed3565b50505050905090810190601f168015612f1b5780820380516001836020036101000a031916815260200191505b509250505060405180910390fd5b939250505056fe456e756d657261626c655365743a20696e646578206f7574206f6620626f756e6473516d54664a696852715837436e31335a575654394e463254345555757570413164355266727436315172613452624552433732313a207472616e7366657220746f206e6f6e20455243373231526563656976657220696d706c656d656e7465724f776e61626c653a206e6577206f776e657220697320746865207a65726f20616464726573734552433732313a207472616e7366657220746f20746865207a65726f2061646472657373516d58566f68394a37656f675a545557594333613159704a36477134524b3262324c336e444c3735514c67365162516d596452324c55577a75597176574776774d507161727375477233566b786b594269576d336931506d6f426f31416464726573733a20696e73756666696369656e742062616c616e636520666f722063616c6c4552433732313a206f70657261746f7220717565727920666f72206e6f6e6578697374656e7420746f6b656e516d6563617a557276636444505a387a51334e646d34765768436d6a4b31574734684a735350595a6147316179584552433732313a20617070726f76652063616c6c6572206973206e6f74206f776e6572206e6f7220617070726f76656420666f7220616c6c4552433732313a2062616c616e636520717565727920666f7220746865207a65726f20616464726573734552433732313a206f776e657220717565727920666f72206e6f6e6578697374656e7420746f6b656e456e756d657261626c654d61703a20696e646578206f7574206f6620626f756e64734552433732313a20617070726f76656420717565727920666f72206e6f6e6578697374656e7420746f6b656e516d52534c6a68337a4e6e3154796f4572434d5a387970764d42356f61626f7a747836584131384e6866477536694552433732313a207472616e73666572206f6620746f6b656e2074686174206973206e6f74206f776e4552433732314d657461646174613a2055524920717565727920666f72206e6f6e6578697374656e7420746f6b656e4552433732313a20617070726f76616c20746f2063757272656e74206f776e65724552433732313a207472616e736665722063616c6c6572206973206e6f74206f776e6572206e6f7220617070726f766564516d56434b4e366176594a4a554375656b563144544868796656486a667a71773738625a734b6d3950525462314b4552433732314d657461646174613a20495046532068617368206e6f6e6578697374656e74516d593452664d33716677357a326f6e71324b61334841523964413448396a67774e697a3356725658464d505a64a264697066735822122021b33069d025218711735083fafa29eff085ed6e542b20a9036821e3df5928a364736f6c63430007030033516d54664a696852715837436e31335a575654394e46325434555575757041316435526672743631517261345262516d58566f68394a37656f675a545557594333613159704a36477134524b3262324c336e444c3735514c67365162516d596452324c55577a75597176574776774d507161727375477233566b786b594269576d336931506d6f426f31516d6563617a557276636444505a387a51334e646d34765768436d6a4b31574734684a735350595a614731617958516d52534c6a68337a4e6e3154796f4572434d5a387970764d42356f61626f7a747836584131384e686647753669516d56434b4e366176594a4a554375656b563144544868796656486a667a71773738625a734b6d3950525462314b516d593452664d33716677357a326f6e71324b61334841523964413448396a67774e697a3356725658464d505a64",
  "linkReferences": {},
  "deployedLinkReferences": {}
}